{
  "address": "0xabc32128A1FF88587e8Dd0dB9783EF9Edfca367e",
  "abi": [
    {
      "inputs": [],
      "stateMutability": "nonpayable",
      "type": "constructor"
    },
    {
      "anonymous": false,
      "inputs": [
        {
          "indexed": true,
          "internalType": "address",
          "name": "account",
          "type": "address"
        },
        {
          "indexed": true,
          "internalType": "address",
          "name": "operator",
          "type": "address"
        },
        {
          "indexed": false,
          "internalType": "bool",
          "name": "approved",
          "type": "bool"
        }
      ],
      "name": "ApprovalForAll",
      "type": "event"
    },
    {
      "anonymous": false,
      "inputs": [
        {
          "indexed": false,
          "internalType": "address",
          "name": "account",
          "type": "address"
        }
      ],
      "name": "Paused",
      "type": "event"
    },
    {
      "anonymous": false,
      "inputs": [
        {
          "indexed": true,
          "internalType": "bytes32",
          "name": "role",
          "type": "bytes32"
        },
        {
          "indexed": true,
          "internalType": "bytes32",
          "name": "previousAdminRole",
          "type": "bytes32"
        },
        {
          "indexed": true,
          "internalType": "bytes32",
          "name": "newAdminRole",
          "type": "bytes32"
        }
      ],
      "name": "RoleAdminChanged",
      "type": "event"
    },
    {
      "anonymous": false,
      "inputs": [
        {
          "indexed": true,
          "internalType": "bytes32",
          "name": "role",
          "type": "bytes32"
        },
        {
          "indexed": true,
          "internalType": "address",
          "name": "account",
          "type": "address"
        },
        {
          "indexed": true,
          "internalType": "address",
          "name": "sender",
          "type": "address"
        }
      ],
      "name": "RoleGranted",
      "type": "event"
    },
    {
      "anonymous": false,
      "inputs": [
        {
          "indexed": true,
          "internalType": "bytes32",
          "name": "role",
          "type": "bytes32"
        },
        {
          "indexed": true,
          "internalType": "address",
          "name": "account",
          "type": "address"
        },
        {
          "indexed": true,
          "internalType": "address",
          "name": "sender",
          "type": "address"
        }
      ],
      "name": "RoleRevoked",
      "type": "event"
    },
    {
      "anonymous": false,
      "inputs": [
        {
          "indexed": true,
          "internalType": "address",
          "name": "operator",
          "type": "address"
        },
        {
          "indexed": true,
          "internalType": "address",
          "name": "from",
          "type": "address"
        },
        {
          "indexed": true,
          "internalType": "address",
          "name": "to",
          "type": "address"
        },
        {
          "indexed": false,
          "internalType": "uint256[]",
          "name": "ids",
          "type": "uint256[]"
        },
        {
          "indexed": false,
          "internalType": "uint256[]",
          "name": "values",
          "type": "uint256[]"
        }
      ],
      "name": "TransferBatch",
      "type": "event"
    },
    {
      "anonymous": false,
      "inputs": [
        {
          "indexed": true,
          "internalType": "address",
          "name": "operator",
          "type": "address"
        },
        {
          "indexed": true,
          "internalType": "address",
          "name": "from",
          "type": "address"
        },
        {
          "indexed": true,
          "internalType": "address",
          "name": "to",
          "type": "address"
        },
        {
          "indexed": false,
          "internalType": "uint256",
          "name": "id",
          "type": "uint256"
        },
        {
          "indexed": false,
          "internalType": "uint256",
          "name": "value",
          "type": "uint256"
        }
      ],
      "name": "TransferSingle",
      "type": "event"
    },
    {
      "anonymous": false,
      "inputs": [
        {
          "indexed": false,
          "internalType": "string",
          "name": "value",
          "type": "string"
        },
        {
          "indexed": true,
          "internalType": "uint256",
          "name": "id",
          "type": "uint256"
        }
      ],
      "name": "URI",
      "type": "event"
    },
    {
      "anonymous": false,
      "inputs": [
        {
          "indexed": false,
          "internalType": "address",
          "name": "account",
          "type": "address"
        }
      ],
      "name": "Unpaused",
      "type": "event"
    },
    {
      "inputs": [],
      "name": "DEFAULT_ADMIN_ROLE",
      "outputs": [
        {
          "internalType": "bytes32",
          "name": "",
          "type": "bytes32"
        }
      ],
      "stateMutability": "view",
      "type": "function"
    },
    {
      "inputs": [],
      "name": "MINTER_ROLE",
      "outputs": [
        {
          "internalType": "bytes32",
          "name": "",
          "type": "bytes32"
        }
      ],
      "stateMutability": "view",
      "type": "function"
    },
    {
      "inputs": [],
      "name": "PAUSER_ROLE",
      "outputs": [
        {
          "internalType": "bytes32",
          "name": "",
          "type": "bytes32"
        }
      ],
      "stateMutability": "view",
      "type": "function"
    },
    {
      "inputs": [
        {
          "internalType": "address",
          "name": "account",
          "type": "address"
        },
        {
          "internalType": "uint256",
          "name": "id",
          "type": "uint256"
        }
      ],
      "name": "balanceOf",
      "outputs": [
        {
          "internalType": "uint256",
          "name": "",
          "type": "uint256"
        }
      ],
      "stateMutability": "view",
      "type": "function"
    },
    {
      "inputs": [
        {
          "internalType": "address[]",
          "name": "accounts",
          "type": "address[]"
        },
        {
          "internalType": "uint256[]",
          "name": "ids",
          "type": "uint256[]"
        }
      ],
      "name": "balanceOfBatch",
      "outputs": [
        {
          "internalType": "uint256[]",
          "name": "",
          "type": "uint256[]"
        }
      ],
      "stateMutability": "view",
      "type": "function"
    },
    {
      "inputs": [
        {
          "internalType": "address",
          "name": "account",
          "type": "address"
        },
        {
          "internalType": "uint256",
          "name": "id",
          "type": "uint256"
        },
        {
          "internalType": "uint256",
          "name": "value",
          "type": "uint256"
        }
      ],
      "name": "burn",
      "outputs": [],
      "stateMutability": "nonpayable",
      "type": "function"
    },
    {
      "inputs": [
        {
          "internalType": "address",
          "name": "account",
          "type": "address"
        },
        {
          "internalType": "uint256[]",
          "name": "ids",
          "type": "uint256[]"
        },
        {
          "internalType": "uint256[]",
          "name": "values",
          "type": "uint256[]"
        }
      ],
      "name": "burnBatch",
      "outputs": [],
      "stateMutability": "nonpayable",
      "type": "function"
    },
    {
      "inputs": [
        {
          "internalType": "bytes32",
          "name": "role",
          "type": "bytes32"
        }
      ],
      "name": "getRoleAdmin",
      "outputs": [
        {
          "internalType": "bytes32",
          "name": "",
          "type": "bytes32"
        }
      ],
      "stateMutability": "view",
      "type": "function"
    },
    {
      "inputs": [
        {
          "internalType": "bytes32",
          "name": "role",
          "type": "bytes32"
        },
        {
          "internalType": "uint256",
          "name": "index",
          "type": "uint256"
        }
      ],
      "name": "getRoleMember",
      "outputs": [
        {
          "internalType": "address",
          "name": "",
          "type": "address"
        }
      ],
      "stateMutability": "view",
      "type": "function"
    },
    {
      "inputs": [
        {
          "internalType": "bytes32",
          "name": "role",
          "type": "bytes32"
        }
      ],
      "name": "getRoleMemberCount",
      "outputs": [
        {
          "internalType": "uint256",
          "name": "",
          "type": "uint256"
        }
      ],
      "stateMutability": "view",
      "type": "function"
    },
    {
      "inputs": [
        {
          "internalType": "uint256",
          "name": "id",
          "type": "uint256"
        }
      ],
      "name": "getTokenMetadata",
      "outputs": [
        {
          "internalType": "string",
          "name": "",
          "type": "string"
        }
      ],
      "stateMutability": "view",
      "type": "function"
    },
    {
      "inputs": [
        {
          "internalType": "bytes32",
          "name": "role",
          "type": "bytes32"
        },
        {
          "internalType": "address",
          "name": "account",
          "type": "address"
        }
      ],
      "name": "grantRole",
      "outputs": [],
      "stateMutability": "nonpayable",
      "type": "function"
    },
    {
      "inputs": [
        {
          "internalType": "bytes32",
          "name": "role",
          "type": "bytes32"
        },
        {
          "internalType": "address",
          "name": "account",
          "type": "address"
        }
      ],
      "name": "hasRole",
      "outputs": [
        {
          "internalType": "bool",
          "name": "",
          "type": "bool"
        }
      ],
      "stateMutability": "view",
      "type": "function"
    },
    {
      "inputs": [
        {
          "internalType": "address",
          "name": "account",
          "type": "address"
        },
        {
          "internalType": "address",
          "name": "operator",
          "type": "address"
        }
      ],
      "name": "isApprovedForAll",
      "outputs": [
        {
          "internalType": "bool",
          "name": "",
          "type": "bool"
        }
      ],
      "stateMutability": "view",
      "type": "function"
    },
    {
      "inputs": [
        {
          "internalType": "address",
          "name": "to",
          "type": "address"
        },
        {
          "internalType": "uint256",
          "name": "id",
          "type": "uint256"
        },
        {
          "internalType": "uint256",
          "name": "amount",
          "type": "uint256"
        },
        {
          "internalType": "bytes",
          "name": "data",
          "type": "bytes"
        }
      ],
      "name": "mint",
      "outputs": [],
      "stateMutability": "nonpayable",
      "type": "function"
    },
    {
      "inputs": [
        {
          "internalType": "address",
          "name": "to",
          "type": "address"
        },
        {
          "internalType": "uint256[]",
          "name": "ids",
          "type": "uint256[]"
        },
        {
          "internalType": "uint256[]",
          "name": "amounts",
          "type": "uint256[]"
        },
        {
          "internalType": "bytes",
          "name": "data",
          "type": "bytes"
        }
      ],
      "name": "mintBatch",
      "outputs": [],
      "stateMutability": "nonpayable",
      "type": "function"
    },
    {
      "inputs": [
        {
          "internalType": "address",
          "name": "account",
          "type": "address"
        },
        {
          "internalType": "string",
          "name": "tokenMetadataHash",
          "type": "string"
        }
      ],
      "name": "mintNFT",
      "outputs": [],
      "stateMutability": "nonpayable",
      "type": "function"
    },
    {
      "inputs": [],
      "name": "pause",
      "outputs": [],
      "stateMutability": "nonpayable",
      "type": "function"
    },
    {
      "inputs": [],
      "name": "paused",
      "outputs": [
        {
          "internalType": "bool",
          "name": "",
          "type": "bool"
        }
      ],
      "stateMutability": "view",
      "type": "function"
    },
    {
      "inputs": [
        {
          "internalType": "bytes32",
          "name": "role",
          "type": "bytes32"
        },
        {
          "internalType": "address",
          "name": "account",
          "type": "address"
        }
      ],
      "name": "renounceRole",
      "outputs": [],
      "stateMutability": "nonpayable",
      "type": "function"
    },
    {
      "inputs": [
        {
          "internalType": "bytes32",
          "name": "role",
          "type": "bytes32"
        },
        {
          "internalType": "address",
          "name": "account",
          "type": "address"
        }
      ],
      "name": "revokeRole",
      "outputs": [],
      "stateMutability": "nonpayable",
      "type": "function"
    },
    {
      "inputs": [
        {
          "internalType": "address",
          "name": "from",
          "type": "address"
        },
        {
          "internalType": "address",
          "name": "to",
          "type": "address"
        },
        {
          "internalType": "uint256[]",
          "name": "ids",
          "type": "uint256[]"
        },
        {
          "internalType": "uint256[]",
          "name": "amounts",
          "type": "uint256[]"
        },
        {
          "internalType": "bytes",
          "name": "data",
          "type": "bytes"
        }
      ],
      "name": "safeBatchTransferFrom",
      "outputs": [],
      "stateMutability": "nonpayable",
      "type": "function"
    },
    {
      "inputs": [
        {
          "internalType": "address",
          "name": "from",
          "type": "address"
        },
        {
          "internalType": "address",
          "name": "to",
          "type": "address"
        },
        {
          "internalType": "uint256",
          "name": "id",
          "type": "uint256"
        },
        {
          "internalType": "uint256",
          "name": "amount",
          "type": "uint256"
        },
        {
          "internalType": "bytes",
          "name": "data",
          "type": "bytes"
        }
      ],
      "name": "safeTransferFrom",
      "outputs": [],
      "stateMutability": "nonpayable",
      "type": "function"
    },
    {
      "inputs": [
        {
          "internalType": "address",
          "name": "operator",
          "type": "address"
        },
        {
          "internalType": "bool",
          "name": "approved",
          "type": "bool"
        }
      ],
      "name": "setApprovalForAll",
      "outputs": [],
      "stateMutability": "nonpayable",
      "type": "function"
    },
    {
      "inputs": [
        {
          "internalType": "bytes4",
          "name": "interfaceId",
          "type": "bytes4"
        }
      ],
      "name": "supportsInterface",
      "outputs": [
        {
          "internalType": "bool",
          "name": "",
          "type": "bool"
        }
      ],
      "stateMutability": "view",
      "type": "function"
    },
    {
      "inputs": [],
      "name": "tokenIdCount",
      "outputs": [
        {
          "internalType": "uint256",
          "name": "",
          "type": "uint256"
        }
      ],
      "stateMutability": "view",
      "type": "function"
    },
    {
      "inputs": [
        {
          "internalType": "uint256",
          "name": "",
          "type": "uint256"
        }
      ],
      "name": "tokens",
      "outputs": [
        {
          "internalType": "string",
          "name": "",
          "type": "string"
        }
      ],
      "stateMutability": "view",
      "type": "function"
    },
    {
      "inputs": [],
      "name": "unpause",
      "outputs": [],
      "stateMutability": "nonpayable",
      "type": "function"
    },
    {
      "inputs": [
        {
          "internalType": "uint256",
          "name": "",
          "type": "uint256"
        }
      ],
      "name": "uri",
      "outputs": [
        {
          "internalType": "string",
          "name": "",
          "type": "string"
        }
      ],
      "stateMutability": "view",
      "type": "function"
    }
  ],
  "transactionHash": "0xc61e4afa2eca3b37f1c7f8e1448064d93e4bcd98f78a6f900af33bce106c7c72",
  "args": [],
  "solcInputHash": "a1359c172af6b001fe9a8061d79f8fdc",
  "bytecode": "0x60806040523480156200001157600080fd5b50604080516020810190915260008152806200002d81620000b8565b506005805460ff191690556200004e600062000048620000d1565b620000d5565b6200007d7f9f2df0fed2c77648de5860a4cc508cd0818c85b8b8a1ab4ceeef8d981c8956a662000048620000d1565b620000ac7f65d7a28e3265b37a6474929f336521b332c1681b933f6cb9f3376673440d862a62000048620000d1565b50600060075562000341565b8051620000cd9060049060208401906200025e565b5050565b3390565b620000ec82826200011860201b62000c5f1760201c565b60008281526001602090815260409091206200011391839062000c6d62000124821b17901c565b505050565b620000cd828262000144565b60006200013b836001600160a01b038416620001ce565b90505b92915050565b6200015082826200021d565b620000cd576000828152602081815260408083206001600160a01b03851684529091529020805460ff191660011790556200018a620000d1565b6001600160a01b0316816001600160a01b0316837f2f8788117e7eff1d82e926ec794901d17c78024a50270940304540a733656f0d60405160405180910390a45050565b6000620001dc838362000246565b62000214575081546001818101845560008481526020808220909301849055845484825282860190935260409020919091556200013e565b5060006200013e565b6000918252602082815260408084206001600160a01b0393909316845291905290205460ff1690565b60009081526001919091016020526040902054151590565b8280546200026c9062000304565b90600052602060002090601f016020900481019282620002905760008555620002db565b82601f10620002ab57805160ff1916838001178555620002db565b82800160010185558215620002db579182015b82811115620002db578251825591602001919060010190620002be565b50620002e9929150620002ed565b5090565b5b80821115620002e95760008155600101620002ee565b6002810460018216806200031957607f821691505b602082108114156200033b57634e487b7160e01b600052602260045260246000fd5b50919050565b61301b80620003516000396000f3fe608060405234801561001057600080fd5b50600436106101ce5760003560e01c8063731133e911610104578063d5391393116100a2578063eacabe1411610071578063eacabe14146103b8578063f127394c146103cb578063f242432a146103d3578063f5298aca146103e6576101ce565b8063d539139314610382578063d547741f1461038a578063e63ab1e91461039d578063e985e9c5146103a5576101ce565b806391d14854116100de57806391d1485414610341578063a217fddf14610354578063a22cb4651461035c578063ca15c8731461036f576101ce565b8063731133e9146103065780638456cb59146103195780639010d07c14610321576101ce565b806336568abe116101715780634f64b2be1161014b5780634f64b2be146102c55780635c975abb146102d857806360316801146102e05780636b20c454146102f3576101ce565b806336568abe1461028a5780633f4ba83a1461029d5780634e1273f4146102a5576101ce565b80631f7fdffa116101ad5780631f7fdffa1461023c578063248a9ca3146102515780632eb2c2d6146102645780632f2ff15d14610277576101ce565b8062fdd58e146101d357806301ffc9a7146101fc5780630e89341c1461021c575b600080fd5b6101e66101e136600461233e565b6103f9565b6040516101f39190612719565b60405180910390f35b61020f61020a366004612503565b610455565b6040516101f3919061270e565b61022f61022a3660046124a8565b610468565b6040516101f39190612722565b61024f61024a3660046121f3565b6104fc565b005b6101e661025f3660046124a8565b610593565b61024f61027236600461207c565b6105a8565b61024f6102853660046124c0565b610606565b61024f6102983660046124c0565b61062d565b61024f61064f565b6102b86102b33660046123eb565b6106a1565b6040516101f391906126cd565b61022f6102d33660046124a8565b6107c0565b61020f61085a565b61022f6102ee3660046124a8565b610864565b61024f610301366004612183565b610881565b61024f610314366004612399565b6108d6565b61024f61091a565b61033461032f3660046124e2565b61096a565b6040516101f39190612616565b61020f61034f3660046124c0565b610989565b6101e66109b2565b61024f61036a366004612287565b6109b7565b6101e661037d3660046124a8565b610a85565b6101e6610a9c565b61024f6103983660046124c0565b610aae565b6101e6610ab8565b61020f6103b336600461204a565b610adc565b61024f6103c63660046122c1565b610b0a565b6101e6610bad565b61024f6103e1366004612121565b610bb3565b61024f6103f4366004612367565b610c0a565b60006001600160a01b03831661042a5760405162461bcd60e51b815260040161042190612834565b60405180910390fd5b5060008181526002602090815260408083206001600160a01b03861684529091529020545b92915050565b600061046082610c82565b90505b919050565b60606004805461047790612e80565b80601f01602080910402602001604051908101604052809291908181526020018280546104a390612e80565b80156104f05780601f106104c5576101008083540402835291602001916104f0565b820191906000526020600020905b8154815290600101906020018083116104d357829003601f168201915b50505050509050919050565b60005b83518110156105805760006006600086848151811061052e57634e487b7160e01b600052603260045260246000fd5b60200260200101518152602001908152602001600020805461054f90612e80565b90501161056e5760405162461bcd60e51b815260040161042190612b60565b8061057881612ebb565b9150506104ff565b5061058d84848484610cc2565b50505050565b60009081526020819052604090206001015490565b6105b0610d04565b6001600160a01b0316856001600160a01b031614806105d657506105d6856103b3610d04565b6105f25760405162461bcd60e51b8152600401610421906129c7565b6105ff8585858585610d08565b5050505050565b6106108282610edc565b60008281526001602052604090206106289082610c6d565b505050565b6106378282610f00565b60008281526001602052604090206106289082610f42565b61067b7f65d7a28e3265b37a6474929f336521b332c1681b933f6cb9f3376673440d862a61034f610d04565b6106975760405162461bcd60e51b815260040161042190612b03565b61069f610f57565b565b606081518351146106c45760405162461bcd60e51b815260040161042190612c3d565b600083516001600160401b038111156106ed57634e487b7160e01b600052604160045260246000fd5b604051908082528060200260200182016040528015610716578160200160208202803683370190505b50905060005b84518110156107b85761077d85828151811061074857634e487b7160e01b600052603260045260246000fd5b602002602001015185838151811061077057634e487b7160e01b600052603260045260246000fd5b60200260200101516103f9565b82828151811061079d57634e487b7160e01b600052603260045260246000fd5b60209081029190910101526107b181612ebb565b905061071c565b509392505050565b600660205260009081526040902080546107d990612e80565b80601f016020809104026020016040519081016040528092919081815260200182805461080590612e80565b80156108525780601f1061082757610100808354040283529160200191610852565b820191906000526020600020905b81548152906001019060200180831161083557829003601f168201915b505050505081565b60055460ff165b90565b600081815260066020526040902080546060919061047790612e80565b610889610d04565b6001600160a01b0316836001600160a01b031614806108af57506108af836103b3610d04565b6108cb5760405162461bcd60e51b81526004016104219061290f565b610628838383610fc5565b600083815260066020526040812080546108ef90612e80565b90501161090e5760405162461bcd60e51b815260040161042190612b60565b61058d84848484611179565b6109467f65d7a28e3265b37a6474929f336521b332c1681b933f6cb9f3376673440d862a61034f610d04565b6109625760405162461bcd60e51b815260040161042190612b97565b61069f6111bb565b60008281526001602052604081206109829083611216565b9392505050565b6000918252602082815260408084206001600160a01b0393909316845291905290205460ff1690565b600081565b816001600160a01b03166109c9610d04565b6001600160a01b031614156109f05760405162461bcd60e51b815260040161042190612bf4565b80600360006109fd610d04565b6001600160a01b03908116825260208083019390935260409182016000908120918716808252919093529120805460ff191692151592909217909155610a41610d04565b6001600160a01b03167f17307eab39ab6107e8899845ad3d59bd9653f200f220920489ca2b5937696c3183604051610a79919061270e565b60405180910390a35050565b600081815260016020526040812061046090611222565b600080516020612fc683398151915281565b610637828261122d565b7f65d7a28e3265b37a6474929f336521b332c1681b933f6cb9f3376673440d862a81565b6001600160a01b03918216600090815260036020908152604080832093909416825291909152205460ff1690565b610b24600080516020612fc683398151915261034f610d04565b610b405760405162461bcd60e51b815260040161042190612a5c565b80610b5d5760405162461bcd60e51b815260040161042190612cce565b60078054906000610b6d83612ebb565b90915550506007546000908152600660205260409020610b8e908383611ec4565b506106288360075460016040518060200160405280600081525061124c565b60075481565b610bbb610d04565b6001600160a01b0316856001600160a01b03161480610be15750610be1856103b3610d04565b610bfd5760405162461bcd60e51b81526004016104219061290f565b6105ff858585858561133d565b610c12610d04565b6001600160a01b0316836001600160a01b03161480610c385750610c38836103b3610d04565b610c545760405162461bcd60e51b81526004016104219061290f565b610628838383611475565b610c698282611588565b5050565b6000610982836001600160a01b03841661160d565b60006001600160e01b03198216636cdb3d1360e11b1480610cb357506001600160e01b031982166303a24d0760e21b145b80610460575061046082611657565b610cdc600080516020612fc683398151915261034f610d04565b610cf85760405162461bcd60e51b815260040161042190612a5c565b61058d8484848461167c565b3390565b8151835114610d295760405162461bcd60e51b815260040161042190612c86565b6001600160a01b038416610d4f5760405162461bcd60e51b815260040161042190612982565b6000610d59610d04565b9050610d698187878787876117fe565b60005b8451811015610e6e576000858281518110610d9757634e487b7160e01b600052603260045260246000fd5b602002602001015190506000858381518110610dc357634e487b7160e01b600052603260045260246000fd5b60209081029190910181015160008481526002835260408082206001600160a01b038e168352909352919091205490915081811015610e145760405162461bcd60e51b815260040161042190612ab9565b60008381526002602090815260408083206001600160a01b038e8116855292528083208585039055908b16825281208054849290610e53908490612def565b9250508190555050505080610e6790612ebb565b9050610d6c565b50846001600160a01b0316866001600160a01b0316826001600160a01b03167f4a39dc06d4c0dbc64b70af90fd698a233a518aa5d07e595d983b8c0526c8f7fb8787604051610ebe9291906126e0565b60405180910390a4610ed481878787878761180c565b505050505050565b610ee582610593565b610ef681610ef1610d04565b61191a565b6106288383611588565b610f08610d04565b6001600160a01b0316816001600160a01b031614610f385760405162461bcd60e51b815260040161042190612d46565b610c69828261197e565b6000610982836001600160a01b038416611a01565b610f5f61085a565b610f7b5760405162461bcd60e51b815260040161042190612806565b6005805460ff191690557f5db9ee0a495bf2e6ff9c91a7834c1ba4fdd244a5e8aa4e537bd38aeae4b073aa610fae610d04565b604051610fbb9190612616565b60405180910390a1565b6001600160a01b038316610feb5760405162461bcd60e51b815260040161042190612a19565b805182511461100c5760405162461bcd60e51b815260040161042190612c86565b6000611016610d04565b9050611036818560008686604051806020016040528060008152506117fe565b60005b835181101561111a57600084828151811061106457634e487b7160e01b600052603260045260246000fd5b60200260200101519050600084838151811061109057634e487b7160e01b600052603260045260246000fd5b60209081029190910181015160008481526002835260408082206001600160a01b038c1683529093529190912054909150818110156110e15760405162461bcd60e51b81526004016104219061287f565b60009283526002602090815260408085206001600160a01b038b168652909152909220910390558061111281612ebb565b915050611039565b5060006001600160a01b0316846001600160a01b0316826001600160a01b03167f4a39dc06d4c0dbc64b70af90fd698a233a518aa5d07e595d983b8c0526c8f7fb868660405161116b9291906126e0565b60405180910390a450505050565b611193600080516020612fc683398151915261034f610d04565b6111af5760405162461bcd60e51b815260040161042190612a5c565b61058d8484848461124c565b6111c361085a565b156111e05760405162461bcd60e51b815260040161042190612958565b6005805460ff191660011790557f62e78cea01bee320cd4e420270b5ea74000d11b0c9f74754ebdbfc544b05a258610fae610d04565b60006109828383611b1e565b600061046082611b56565b61123682610593565b61124281610ef1610d04565b610628838361197e565b6001600160a01b0384166112725760405162461bcd60e51b815260040161042190612d05565b600061127c610d04565b905061129d8160008761128e88611b5a565b61129788611b5a565b876117fe565b60008481526002602090815260408083206001600160a01b0389168452909152812080548592906112cf908490612def565b92505081905550846001600160a01b031660006001600160a01b0316826001600160a01b03167fc3d58168c5ae7397731d063d5bbf3d657854427343f4c083240f7aacaa2d0f628787604051611326929190612d95565b60405180910390a46105ff81600087878787611bb3565b6001600160a01b0384166113635760405162461bcd60e51b815260040161042190612982565b600061136d610d04565b905061137e81878761128e88611b5a565b60008481526002602090815260408083206001600160a01b038a168452909152902054838110156113c15760405162461bcd60e51b815260040161042190612ab9565b60008581526002602090815260408083206001600160a01b038b8116855292528083208785039055908816825281208054869290611400908490612def565b92505081905550856001600160a01b0316876001600160a01b0316836001600160a01b03167fc3d58168c5ae7397731d063d5bbf3d657854427343f4c083240f7aacaa2d0f628888604051611456929190612d95565b60405180910390a461146c828888888888611bb3565b50505050505050565b6001600160a01b03831661149b5760405162461bcd60e51b815260040161042190612a19565b60006114a5610d04565b90506114d5818560006114b787611b5a565b6114c087611b5a565b604051806020016040528060008152506117fe565b60008381526002602090815260408083206001600160a01b0388168452909152902054828110156115185760405162461bcd60e51b81526004016104219061287f565b60008481526002602090815260408083206001600160a01b03808a16808652919093528184208786039055905190918516907fc3d58168c5ae7397731d063d5bbf3d657854427343f4c083240f7aacaa2d0f62906115799089908990612d95565b60405180910390a45050505050565b6115928282610989565b610c69576000828152602081815260408083206001600160a01b03851684529091529020805460ff191660011790556115c9610d04565b6001600160a01b0316816001600160a01b0316837f2f8788117e7eff1d82e926ec794901d17c78024a50270940304540a733656f0d60405160405180910390a45050565b60006116198383611c84565b61164f5750815460018181018455600084815260208082209093018490558454848252828601909352604090209190915561044f565b50600061044f565b60006001600160e01b03198216635a05180f60e01b1480610460575061046082611c9c565b6001600160a01b0384166116a25760405162461bcd60e51b815260040161042190612d05565b81518351146116c35760405162461bcd60e51b815260040161042190612c86565b60006116cd610d04565b90506116de816000878787876117fe565b60005b84518110156117965783818151811061170a57634e487b7160e01b600052603260045260246000fd5b60200260200101516002600087848151811061173657634e487b7160e01b600052603260045260246000fd5b602002602001015181526020019081526020016000206000886001600160a01b03166001600160a01b03168152602001908152602001600020600082825461177e9190612def565b9091555081905061178e81612ebb565b9150506116e1565b50846001600160a01b031660006001600160a01b0316826001600160a01b03167f4a39dc06d4c0dbc64b70af90fd698a233a518aa5d07e595d983b8c0526c8f7fb87876040516117e79291906126e0565b60405180910390a46105ff8160008787878761180c565b610ed4868686868686611cc1565b61181e846001600160a01b0316611cf4565b15610ed45760405163bc197c8160e01b81526001600160a01b0385169063bc197c8190611857908990899088908890889060040161262a565b602060405180830381600087803b15801561187157600080fd5b505af19250505080156118a1575060408051601f3d908101601f1916820190925261189e9181019061251f565b60015b6118ea576118ad612f08565b806118b857506118d2565b8060405162461bcd60e51b81526004016104219190612722565b60405162461bcd60e51b815260040161042190612735565b6001600160e01b0319811663bc197c8160e01b1461146c5760405162461bcd60e51b8152600401610421906127be565b6119248282610989565b610c695761193c816001600160a01b03166014611cfa565b611947836020611cfa565b6040516020016119589291906125a1565b60408051601f198184030181529082905262461bcd60e51b825261042191600401612722565b6119888282610989565b15610c69576000828152602081815260408083206001600160a01b03851684529091529020805460ff191690556119bd610d04565b6001600160a01b0316816001600160a01b0316837ff6391f5c32d9c69d2a47ea670b442974b53935d1edc7fd64eb21e047a839171b60405160405180910390a45050565b60008181526001830160205260408120548015611b14576000611a25600183612e26565b8554909150600090611a3990600190612e26565b9050818114611aba576000866000018281548110611a6757634e487b7160e01b600052603260045260246000fd5b9060005260206000200154905080876000018481548110611a9857634e487b7160e01b600052603260045260246000fd5b6000918252602080832090910192909255918252600188019052604090208390555b8554869080611ad957634e487b7160e01b600052603160045260246000fd5b60019003818190600052602060002001600090559055856001016000868152602001908152602001600020600090556001935050505061044f565b600091505061044f565b6000826000018281548110611b4357634e487b7160e01b600052603260045260246000fd5b9060005260206000200154905092915050565b5490565b60408051600180825281830190925260609160009190602080830190803683370190505090508281600081518110611ba257634e487b7160e01b600052603260045260246000fd5b602090810291909101015292915050565b611bc5846001600160a01b0316611cf4565b15610ed45760405163f23a6e6160e01b81526001600160a01b0385169063f23a6e6190611bfe9089908990889088908890600401612688565b602060405180830381600087803b158015611c1857600080fd5b505af1925050508015611c48575060408051601f3d908101601f19168201909252611c459181019061251f565b60015b611c54576118ad612f08565b6001600160e01b0319811663f23a6e6160e01b1461146c5760405162461bcd60e51b8152600401610421906127be565b60009081526001919091016020526040902054151590565b60006001600160e01b03198216637965db0b60e01b1480610460575061046082611eab565b611ccf868686868686610ed4565b611cd761085a565b15610ed45760405162461bcd60e51b8152600401610421906128c3565b3b151590565b60606000611d09836002612e07565b611d14906002612def565b6001600160401b03811115611d3957634e487b7160e01b600052604160045260246000fd5b6040519080825280601f01601f191660200182016040528015611d63576020820181803683370190505b509050600360fc1b81600081518110611d8c57634e487b7160e01b600052603260045260246000fd5b60200101906001600160f81b031916908160001a905350600f60fb1b81600181518110611dc957634e487b7160e01b600052603260045260246000fd5b60200101906001600160f81b031916908160001a9053506000611ded846002612e07565b611df8906001612def565b90505b6001811115611e8c576f181899199a1a9b1b9c1cb0b131b232b360811b85600f1660108110611e3a57634e487b7160e01b600052603260045260246000fd5b1a60f81b828281518110611e5e57634e487b7160e01b600052603260045260246000fd5b60200101906001600160f81b031916908160001a90535060049490941c93611e8581612e69565b9050611dfb565b5083156109825760405162461bcd60e51b815260040161042190612789565b6001600160e01b031981166301ffc9a760e01b14919050565b828054611ed090612e80565b90600052602060002090601f016020900481019282611ef25760008555611f38565b82601f10611f0b5782800160ff19823516178555611f38565b82800160010185558215611f38579182015b82811115611f38578235825591602001919060010190611f1d565b50611f44929150611f48565b5090565b5b80821115611f445760008155600101611f49565b80356001600160a01b038116811461046357600080fd5b600082601f830112611f84578081fd5b81356020611f99611f9483612dcc565b612da3565b8281528181019085830183850287018401881015611fb5578586fd5b855b85811015611fd357813584529284019290840190600101611fb7565b5090979650505050505050565b600082601f830112611ff0578081fd5b81356001600160401b0381111561200957612009612eec565b61201c601f8201601f1916602001612da3565b818152846020838601011115612030578283fd5b816020850160208301379081016020019190915292915050565b6000806040838503121561205c578182fd5b61206583611f5d565b915061207360208401611f5d565b90509250929050565b600080600080600060a08688031215612093578081fd5b61209c86611f5d565b94506120aa60208701611f5d565b935060408601356001600160401b03808211156120c5578283fd5b6120d189838a01611f74565b945060608801359150808211156120e6578283fd5b6120f289838a01611f74565b93506080880135915080821115612107578283fd5b5061211488828901611fe0565b9150509295509295909350565b600080600080600060a08688031215612138578081fd5b61214186611f5d565b945061214f60208701611f5d565b9350604086013592506060860135915060808601356001600160401b03811115612177578182fd5b61211488828901611fe0565b600080600060608486031215612197578283fd5b6121a084611f5d565b925060208401356001600160401b03808211156121bb578384fd5b6121c787838801611f74565b935060408601359150808211156121dc578283fd5b506121e986828701611f74565b9150509250925092565b60008060008060808587031215612208578384fd5b61221185611f5d565b935060208501356001600160401b038082111561222c578485fd5b61223888838901611f74565b9450604087013591508082111561224d578384fd5b61225988838901611f74565b9350606087013591508082111561226e578283fd5b5061227b87828801611fe0565b91505092959194509250565b60008060408385031215612299578182fd5b6122a283611f5d565b9150602083013580151581146122b6578182fd5b809150509250929050565b6000806000604084860312156122d5578283fd5b6122de84611f5d565b925060208401356001600160401b03808211156122f9578384fd5b818601915086601f83011261230c578384fd5b81358181111561231a578485fd5b87602082850101111561232b578485fd5b6020830194508093505050509250925092565b60008060408385031215612350578182fd5b61235983611f5d565b946020939093013593505050565b60008060006060848603121561237b578081fd5b61238484611f5d565b95602085013595506040909401359392505050565b600080600080608085870312156123ae578182fd5b6123b785611f5d565b9350602085013592506040850135915060608501356001600160401b038111156123df578182fd5b61227b87828801611fe0565b600080604083850312156123fd578182fd5b82356001600160401b0380821115612413578384fd5b818501915085601f830112612426578384fd5b81356020612436611f9483612dcc565b82815281810190858301838502870184018b1015612452578889fd5b8896505b8487101561247b5761246781611f5d565b835260019690960195918301918301612456565b5096505086013592505080821115612491578283fd5b5061249e85828601611f74565b9150509250929050565b6000602082840312156124b9578081fd5b5035919050565b600080604083850312156124d2578182fd5b8235915061207360208401611f5d565b600080604083850312156124f4578182fd5b50508035926020909101359150565b600060208284031215612514578081fd5b813561098281612fac565b600060208284031215612530578081fd5b815161098281612fac565b6000815180845260208085019450808401835b8381101561256a5781518752958201959082019060010161254e565b509495945050505050565b6000815180845261258d816020860160208601612e3d565b601f01601f19169290920160200192915050565b60007f416363657373436f6e74726f6c3a206163636f756e7420000000000000000000825283516125d9816017850160208801612e3d565b7001034b99036b4b9b9b4b733903937b6329607d1b601791840191820152835161260a816028840160208801612e3d565b01602801949350505050565b6001600160a01b0391909116815260200190565b6001600160a01b0386811682528516602082015260a0604082018190526000906126569083018661253b565b8281036060840152612668818661253b565b9050828103608084015261267c8185612575565b98975050505050505050565b6001600160a01b03868116825285166020820152604081018490526060810183905260a0608082018190526000906126c290830184612575565b979650505050505050565b600060208252610982602083018461253b565b6000604082526126f3604083018561253b565b8281036020840152612705818561253b565b95945050505050565b901515815260200190565b90815260200190565b6000602082526109826020830184612575565b60208082526034908201527f455243313135353a207472616e7366657220746f206e6f6e20455243313135356040820152732932b1b2b4bb32b91034b6b83632b6b2b73a32b960611b606082015260800190565b6020808252818101527f537472696e67733a20686578206c656e67746820696e73756666696369656e74604082015260600190565b60208082526028908201527f455243313135353a204552433131353552656365697665722072656a656374656040820152676420746f6b656e7360c01b606082015260800190565b60208082526014908201527314185d5cd8589b194e881b9bdd081c185d5cd95960621b604082015260600190565b6020808252602b908201527f455243313135353a2062616c616e636520717565727920666f7220746865207a60408201526a65726f206164647265737360a81b606082015260800190565b60208082526024908201527f455243313135353a206275726e20616d6f756e7420657863656564732062616c604082015263616e636560e01b606082015260800190565b6020808252602c908201527f455243313135355061757361626c653a20746f6b656e207472616e736665722060408201526b1dda1a5b19481c185d5cd95960a21b606082015260800190565b60208082526029908201527f455243313135353a2063616c6c6572206973206e6f74206f776e6572206e6f7260408201526808185c1c1c9bdd995960ba1b606082015260800190565b60208082526010908201526f14185d5cd8589b194e881c185d5cd95960821b604082015260600190565b60208082526025908201527f455243313135353a207472616e7366657220746f20746865207a65726f206164604082015264647265737360d81b606082015260800190565b60208082526032908201527f455243313135353a207472616e736665722063616c6c6572206973206e6f74206040820152711bdddb995c881b9bdc88185c1c1c9bdd995960721b606082015260800190565b60208082526023908201527f455243313135353a206275726e2066726f6d20746865207a65726f206164647260408201526265737360e81b606082015260800190565b60208082526038908201527f455243313135355072657365744d696e7465725061757365723a206d7573742060408201527f68617665206d696e74657220726f6c6520746f206d696e740000000000000000606082015260800190565b6020808252602a908201527f455243313135353a20696e73756666696369656e742062616c616e636520666f60408201526939103a3930b739b332b960b11b606082015260800190565b6020808252603b908201527f455243313135355072657365744d696e7465725061757365723a206d7573742060408201527f686176652070617573657220726f6c6520746f20756e70617573650000000000606082015260800190565b60208082526019908201527f546f6b656e207479706520646f6573206e6f7420657869737400000000000000604082015260600190565b60208082526039908201527f455243313135355072657365744d696e7465725061757365723a206d7573742060408201527f686176652070617573657220726f6c6520746f20706175736500000000000000606082015260800190565b60208082526029908201527f455243313135353a2073657474696e6720617070726f76616c20737461747573604082015268103337b91039b2b63360b91b606082015260800190565b60208082526029908201527f455243313135353a206163636f756e747320616e6420696473206c656e677468604082015268040dad2e6dac2e8c6d60bb1b606082015260800190565b60208082526028908201527f455243313135353a2069647320616e6420616d6f756e7473206c656e677468206040820152670dad2e6dac2e8c6d60c31b606082015260800190565b60208082526019908201527f4d65746164617461206861736820697320726571756972656400000000000000604082015260600190565b60208082526021908201527f455243313135353a206d696e7420746f20746865207a65726f206164647265736040820152607360f81b606082015260800190565b6020808252602f908201527f416363657373436f6e74726f6c3a2063616e206f6e6c792072656e6f756e636560408201526e103937b632b9903337b91039b2b63360891b606082015260800190565b918252602082015260400190565b6040518181016001600160401b0381118282101715612dc457612dc4612eec565b604052919050565b60006001600160401b03821115612de557612de5612eec565b5060209081020190565b60008219821115612e0257612e02612ed6565b500190565b6000816000190483118215151615612e2157612e21612ed6565b500290565b600082821015612e3857612e38612ed6565b500390565b60005b83811015612e58578181015183820152602001612e40565b8381111561058d5750506000910152565b600081612e7857612e78612ed6565b506000190190565b600281046001821680612e9457607f821691505b60208210811415612eb557634e487b7160e01b600052602260045260246000fd5b50919050565b6000600019821415612ecf57612ecf612ed6565b5060010190565b634e487b7160e01b600052601160045260246000fd5b634e487b7160e01b600052604160045260246000fd5b60e01c90565b600060443d1015612f1857610861565b600481823e6308c379a0612f2c8251612f02565b14612f3657610861565b6040513d600319016004823e80513d6001600160401b038160248401118184111715612f655750505050610861565b82840192508251915080821115612f7f5750505050610861565b503d83016020828401011115612f9757505050610861565b601f01601f1916810160200160405291505090565b6001600160e01b031981168114612fc257600080fd5b5056fe9f2df0fed2c77648de5860a4cc508cd0818c85b8b8a1ab4ceeef8d981c8956a6a26469706673582212202605f5e5357db86135f313bd1f2cdf0cb4b7ba050ea4492ba482d596af6c6dcd64736f6c63430008000033",
  "devdoc": {
    "kind": "dev",
    "methods": {
      "balanceOf(address,uint256)": {
        "details": "See {IERC1155-balanceOf}. Requirements: - `account` cannot be the zero address."
      },
      "balanceOfBatch(address[],uint256[])": {
        "details": "See {IERC1155-balanceOfBatch}. Requirements: - `accounts` and `ids` must have the same length."
      },
      "getRoleAdmin(bytes32)": {
        "details": "Returns the admin role that controls `role`. See {grantRole} and {revokeRole}. To change a role's admin, use {_setRoleAdmin}."
      },
      "getRoleMember(bytes32,uint256)": {
        "details": "Returns one of the accounts that have `role`. `index` must be a value between 0 and {getRoleMemberCount}, non-inclusive. Role bearers are not sorted in any particular way, and their ordering may change at any point. WARNING: When using {getRoleMember} and {getRoleMemberCount}, make sure you perform all queries on the same block. See the following https://forum.openzeppelin.com/t/iterating-over-elements-on-enumerableset-in-openzeppelin-contracts/2296[forum post] for more information."
      },
      "getRoleMemberCount(bytes32)": {
        "details": "Returns the number of accounts that have `role`. Can be used together with {getRoleMember} to enumerate all bearers of a role."
      },
      "getTokenMetadata(uint256)": {
        "params": {
          "id": "token id of the token whose metadata will be returned"
        },
        "returns": {
          "_0": "string hash of the token's metadata"
        }
      },
      "grantRole(bytes32,address)": {
        "details": "Overload {grantRole} to track enumerable memberships"
      },
      "hasRole(bytes32,address)": {
        "details": "Returns `true` if `account` has been granted `role`."
      },
      "isApprovedForAll(address,address)": {
        "details": "See {IERC1155-isApprovedForAll}."
      },
      "mint(address,uint256,uint256,bytes)": {
        "params": {
          "amount": "the amount of tokens with type id to mint",
          "data": "...",
          "id": "token id for the new token",
          "to": "address of the owner for the new token"
        }
      },
      "mintBatch(address,uint256[],uint256[],bytes)": {
        "params": {
          "amounts": "array of amounts to mint tokens from the ids array",
          "data": "...",
          "ids": "array of token ids for the new or existing token/s",
          "to": "address of the owner for the new token/s"
        }
      },
      "mintNFT(address,string)": {
        "params": {
          "account": "address of the owner for the new token",
          "tokenMetadataHash": "a string hash of the metadata for the new token"
        }
      },
      "pause()": {
        "details": "Pauses all token transfers. See {ERC1155Pausable} and {Pausable-_pause}. Requirements: - the caller must have the `PAUSER_ROLE`."
      },
      "paused()": {
        "details": "Returns true if the contract is paused, and false otherwise."
      },
      "renounceRole(bytes32,address)": {
        "details": "Overload {renounceRole} to track enumerable memberships"
      },
      "revokeRole(bytes32,address)": {
        "details": "Overload {revokeRole} to track enumerable memberships"
      },
      "safeBatchTransferFrom(address,address,uint256[],uint256[],bytes)": {
        "details": "See {IERC1155-safeBatchTransferFrom}."
      },
      "safeTransferFrom(address,address,uint256,uint256,bytes)": {
        "details": "See {IERC1155-safeTransferFrom}."
      },
      "setApprovalForAll(address,bool)": {
        "details": "See {IERC1155-setApprovalForAll}."
      },
      "supportsInterface(bytes4)": {
        "details": "See {IERC165-supportsInterface}."
      },
      "unpause()": {
        "details": "Unpauses all token transfers. See {ERC1155Pausable} and {Pausable-_unpause}. Requirements: - the caller must have the `PAUSER_ROLE`."
      },
      "uri(uint256)": {
        "details": "See {IERC1155MetadataURI-uri}. This implementation returns the same URI for *all* token types. It relies on the token type ID substitution mechanism https://eips.ethereum.org/EIPS/eip-1155#metadata[defined in the EIP]. Clients calling this function must replace the `\\{id\\}` substring with the actual token type ID."
      }
    },
    "title": "The main wine trust token contract which extends the ERC1155 minter pauser preset ",
    "version": 1
  },
  "userdoc": {
    "kind": "user",
    "methods": {
      "constructor": {
        "notice": "Initialises the contract and sets token id count to 0"
      },
      "getTokenMetadata(uint256)": {
        "notice": "Function to return a token's metadata hash string"
      },
      "mint(address,uint256,uint256,bytes)": {
        "notice": "Override the existing ERC1155 minter pauser preset mint function to make sure that a metadata hash for the token id exists in the tokens mapping (make sure this token id has been minted using mintToken before adding to it's balance)"
      },
      "mintBatch(address,uint256[],uint256[],bytes)": {
        "notice": "Override the existing ERC1155 minter pauser preset mintBatch function to make sure that a metadata hash for the all the token ids exists in the tokens mapping (make sure these token ids have been minted using mintToken before adding to their balance)"
      },
      "mintNFT(address,string)": {
        "notice": "Mint a wine trust token storing the hash of it's metadata in the tokens mapping"
      },
      "tokenIdCount()": {
        "notice": "Variable to store the token id count"
      },
      "tokens(uint256)": {
        "notice": "Mapping of token ids to token metadata hashes"
      }
    },
    "version": 1
  },
  "storageLayout": {
    "storage": [
      {
        "astId": 24,
        "contract": "contracts/implementations/WineTrustToken.sol:WineTrustToken",
        "label": "_roles",
        "offset": 0,
        "slot": "0",
        "type": "t_mapping(t_bytes32,t_struct(RoleData)19_storage)"
      },
      {
        "astId": 325,
        "contract": "contracts/implementations/WineTrustToken.sol:WineTrustToken",
        "label": "_roleMembers",
        "offset": 0,
        "slot": "1",
        "type": "t_mapping(t_bytes32,t_struct(AddressSet)3119_storage)"
      },
      {
        "astId": 701,
        "contract": "contracts/implementations/WineTrustToken.sol:WineTrustToken",
        "label": "_balances",
        "offset": 0,
        "slot": "2",
        "type": "t_mapping(t_uint256,t_mapping(t_address,t_uint256))"
      },
      {
        "astId": 707,
        "contract": "contracts/implementations/WineTrustToken.sol:WineTrustToken",
        "label": "_operatorApprovals",
        "offset": 0,
        "slot": "3",
        "type": "t_mapping(t_address,t_mapping(t_address,t_bool))"
      },
      {
        "astId": 709,
        "contract": "contracts/implementations/WineTrustToken.sol:WineTrustToken",
        "label": "_uri",
        "offset": 0,
        "slot": "4",
        "type": "t_string_storage"
      },
      {
        "astId": 601,
        "contract": "contracts/implementations/WineTrustToken.sol:WineTrustToken",
        "label": "_paused",
        "offset": 0,
        "slot": "5",
        "type": "t_bool"
      },
      {
        "astId": 3420,
        "contract": "contracts/implementations/WineTrustToken.sol:WineTrustToken",
        "label": "tokens",
        "offset": 0,
        "slot": "6",
        "type": "t_mapping(t_uint256,t_string_storage)"
      },
      {
        "astId": 3423,
        "contract": "contracts/implementations/WineTrustToken.sol:WineTrustToken",
        "label": "tokenIdCount",
        "offset": 0,
        "slot": "7",
        "type": "t_uint256"
      }
    ],
    "types": {
      "t_address": {
        "encoding": "inplace",
        "label": "address",
        "numberOfBytes": "20"
      },
      "t_array(t_bytes32)dyn_storage": {
        "base": "t_bytes32",
        "encoding": "dynamic_array",
        "label": "bytes32[]",
        "numberOfBytes": "32"
      },
      "t_bool": {
        "encoding": "inplace",
        "label": "bool",
        "numberOfBytes": "1"
      },
      "t_bytes32": {
        "encoding": "inplace",
        "label": "bytes32",
        "numberOfBytes": "32"
      },
      "t_mapping(t_address,t_bool)": {
        "encoding": "mapping",
        "key": "t_address",
        "label": "mapping(address => bool)",
        "numberOfBytes": "32",
        "value": "t_bool"
      },
      "t_mapping(t_address,t_mapping(t_address,t_bool))": {
        "encoding": "mapping",
        "key": "t_address",
        "label": "mapping(address => mapping(address => bool))",
        "numberOfBytes": "32",
        "value": "t_mapping(t_address,t_bool)"
      },
      "t_mapping(t_address,t_uint256)": {
        "encoding": "mapping",
        "key": "t_address",
        "label": "mapping(address => uint256)",
        "numberOfBytes": "32",
        "value": "t_uint256"
      },
      "t_mapping(t_bytes32,t_struct(AddressSet)3119_storage)": {
        "encoding": "mapping",
        "key": "t_bytes32",
        "label": "mapping(bytes32 => struct EnumerableSet.AddressSet)",
        "numberOfBytes": "32",
        "value": "t_struct(AddressSet)3119_storage"
      },
      "t_mapping(t_bytes32,t_struct(RoleData)19_storage)": {
        "encoding": "mapping",
        "key": "t_bytes32",
        "label": "mapping(bytes32 => struct AccessControl.RoleData)",
        "numberOfBytes": "32",
        "value": "t_struct(RoleData)19_storage"
      },
      "t_mapping(t_bytes32,t_uint256)": {
        "encoding": "mapping",
        "key": "t_bytes32",
        "label": "mapping(bytes32 => uint256)",
        "numberOfBytes": "32",
        "value": "t_uint256"
      },
      "t_mapping(t_uint256,t_mapping(t_address,t_uint256))": {
        "encoding": "mapping",
        "key": "t_uint256",
        "label": "mapping(uint256 => mapping(address => uint256))",
        "numberOfBytes": "32",
        "value": "t_mapping(t_address,t_uint256)"
      },
      "t_mapping(t_uint256,t_string_storage)": {
        "encoding": "mapping",
        "key": "t_uint256",
        "label": "mapping(uint256 => string)",
        "numberOfBytes": "32",
        "value": "t_string_storage"
      },
      "t_string_storage": {
        "encoding": "bytes",
        "label": "string",
        "numberOfBytes": "32"
      },
      "t_struct(AddressSet)3119_storage": {
        "encoding": "inplace",
        "label": "struct EnumerableSet.AddressSet",
        "members": [
          {
            "astId": 3118,
            "contract": "contracts/implementations/WineTrustToken.sol:WineTrustToken",
            "label": "_inner",
            "offset": 0,
            "slot": "0",
            "type": "t_struct(Set)2818_storage"
          }
        ],
        "numberOfBytes": "64"
      },
      "t_struct(RoleData)19_storage": {
        "encoding": "inplace",
        "label": "struct AccessControl.RoleData",
        "members": [
          {
            "astId": 16,
            "contract": "contracts/implementations/WineTrustToken.sol:WineTrustToken",
            "label": "members",
            "offset": 0,
            "slot": "0",
            "type": "t_mapping(t_address,t_bool)"
          },
          {
            "astId": 18,
            "contract": "contracts/implementations/WineTrustToken.sol:WineTrustToken",
            "label": "adminRole",
            "offset": 0,
            "slot": "1",
            "type": "t_bytes32"
          }
        ],
        "numberOfBytes": "64"
      },
      "t_struct(Set)2818_storage": {
        "encoding": "inplace",
        "label": "struct EnumerableSet.Set",
        "members": [
          {
            "astId": 2813,
            "contract": "contracts/implementations/WineTrustToken.sol:WineTrustToken",
            "label": "_values",
            "offset": 0,
            "slot": "0",
            "type": "t_array(t_bytes32)dyn_storage"
          },
          {
            "astId": 2817,
            "contract": "contracts/implementations/WineTrustToken.sol:WineTrustToken",
            "label": "_indexes",
            "offset": 0,
            "slot": "1",
            "type": "t_mapping(t_bytes32,t_uint256)"
          }
        ],
        "numberOfBytes": "64"
      },
      "t_uint256": {
        "encoding": "inplace",
        "label": "uint256",
        "numberOfBytes": "32"
      }
    }
  }
}