{
  "address": "0xabc32128A1FF88587e8Dd0dB9783EF9Edfca367e",
  "abi": [
    {
      "inputs": [],
      "stateMutability": "nonpayable",
      "type": "constructor"
    },
    {
      "anonymous": false,
      "inputs": [
        {
          "indexed": true,
          "internalType": "address",
          "name": "account",
          "type": "address"
        },
        {
          "indexed": true,
          "internalType": "address",
          "name": "operator",
          "type": "address"
        },
        {
          "indexed": false,
          "internalType": "bool",
          "name": "approved",
          "type": "bool"
        }
      ],
      "name": "ApprovalForAll",
      "type": "event"
    },
    {
      "anonymous": false,
      "inputs": [
        {
          "indexed": false,
          "internalType": "address",
          "name": "account",
          "type": "address"
        }
      ],
      "name": "Paused",
      "type": "event"
    },
    {
      "anonymous": false,
      "inputs": [
        {
          "indexed": true,
          "internalType": "bytes32",
          "name": "role",
          "type": "bytes32"
        },
        {
          "indexed": true,
          "internalType": "bytes32",
          "name": "previousAdminRole",
          "type": "bytes32"
        },
        {
          "indexed": true,
          "internalType": "bytes32",
          "name": "newAdminRole",
          "type": "bytes32"
        }
      ],
      "name": "RoleAdminChanged",
      "type": "event"
    },
    {
      "anonymous": false,
      "inputs": [
        {
          "indexed": true,
          "internalType": "bytes32",
          "name": "role",
          "type": "bytes32"
        },
        {
          "indexed": true,
          "internalType": "address",
          "name": "account",
          "type": "address"
        },
        {
          "indexed": true,
          "internalType": "address",
          "name": "sender",
          "type": "address"
        }
      ],
      "name": "RoleGranted",
      "type": "event"
    },
    {
      "anonymous": false,
      "inputs": [
        {
          "indexed": true,
          "internalType": "bytes32",
          "name": "role",
          "type": "bytes32"
        },
        {
          "indexed": true,
          "internalType": "address",
          "name": "account",
          "type": "address"
        },
        {
          "indexed": true,
          "internalType": "address",
          "name": "sender",
          "type": "address"
        }
      ],
      "name": "RoleRevoked",
      "type": "event"
    },
    {
      "anonymous": false,
      "inputs": [
        {
          "indexed": true,
          "internalType": "address",
          "name": "operator",
          "type": "address"
        },
        {
          "indexed": true,
          "internalType": "address",
          "name": "from",
          "type": "address"
        },
        {
          "indexed": true,
          "internalType": "address",
          "name": "to",
          "type": "address"
        },
        {
          "indexed": false,
          "internalType": "uint256[]",
          "name": "ids",
          "type": "uint256[]"
        },
        {
          "indexed": false,
          "internalType": "uint256[]",
          "name": "values",
          "type": "uint256[]"
        }
      ],
      "name": "TransferBatch",
      "type": "event"
    },
    {
      "anonymous": false,
      "inputs": [
        {
          "indexed": true,
          "internalType": "address",
          "name": "operator",
          "type": "address"
        },
        {
          "indexed": true,
          "internalType": "address",
          "name": "from",
          "type": "address"
        },
        {
          "indexed": true,
          "internalType": "address",
          "name": "to",
          "type": "address"
        },
        {
          "indexed": false,
          "internalType": "uint256",
          "name": "id",
          "type": "uint256"
        },
        {
          "indexed": false,
          "internalType": "uint256",
          "name": "value",
          "type": "uint256"
        }
      ],
      "name": "TransferSingle",
      "type": "event"
    },
    {
      "anonymous": false,
      "inputs": [
        {
          "indexed": false,
          "internalType": "string",
          "name": "value",
          "type": "string"
        },
        {
          "indexed": true,
          "internalType": "uint256",
          "name": "id",
          "type": "uint256"
        }
      ],
      "name": "URI",
      "type": "event"
    },
    {
      "anonymous": false,
      "inputs": [
        {
          "indexed": false,
          "internalType": "address",
          "name": "account",
          "type": "address"
        }
      ],
      "name": "Unpaused",
      "type": "event"
    },
    {
      "inputs": [],
      "name": "DEFAULT_ADMIN_ROLE",
      "outputs": [
        {
          "internalType": "bytes32",
          "name": "",
          "type": "bytes32"
        }
      ],
      "stateMutability": "view",
      "type": "function"
    },
    {
      "inputs": [],
      "name": "MINTER_ROLE",
      "outputs": [
        {
          "internalType": "bytes32",
          "name": "",
          "type": "bytes32"
        }
      ],
      "stateMutability": "view",
      "type": "function"
    },
    {
      "inputs": [],
      "name": "PAUSER_ROLE",
      "outputs": [
        {
          "internalType": "bytes32",
          "name": "",
          "type": "bytes32"
        }
      ],
      "stateMutability": "view",
      "type": "function"
    },
    {
      "inputs": [
        {
          "internalType": "address",
          "name": "account",
          "type": "address"
        },
        {
          "internalType": "uint256",
          "name": "id",
          "type": "uint256"
        }
      ],
      "name": "balanceOf",
      "outputs": [
        {
          "internalType": "uint256",
          "name": "",
          "type": "uint256"
        }
      ],
      "stateMutability": "view",
      "type": "function"
    },
    {
      "inputs": [
        {
          "internalType": "address[]",
          "name": "accounts",
          "type": "address[]"
        },
        {
          "internalType": "uint256[]",
          "name": "ids",
          "type": "uint256[]"
        }
      ],
      "name": "balanceOfBatch",
      "outputs": [
        {
          "internalType": "uint256[]",
          "name": "",
          "type": "uint256[]"
        }
      ],
      "stateMutability": "view",
      "type": "function"
    },
    {
      "inputs": [
        {
          "internalType": "address",
          "name": "account",
          "type": "address"
        },
        {
          "internalType": "uint256",
          "name": "id",
          "type": "uint256"
        },
        {
          "internalType": "uint256",
          "name": "value",
          "type": "uint256"
        }
      ],
      "name": "burn",
      "outputs": [],
      "stateMutability": "nonpayable",
      "type": "function"
    },
    {
      "inputs": [
        {
          "internalType": "address",
          "name": "account",
          "type": "address"
        },
        {
          "internalType": "uint256[]",
          "name": "ids",
          "type": "uint256[]"
        },
        {
          "internalType": "uint256[]",
          "name": "values",
          "type": "uint256[]"
        }
      ],
      "name": "burnBatch",
      "outputs": [],
      "stateMutability": "nonpayable",
      "type": "function"
    },
    {
      "inputs": [
        {
          "internalType": "bytes32",
          "name": "role",
          "type": "bytes32"
        }
      ],
      "name": "getRoleAdmin",
      "outputs": [
        {
          "internalType": "bytes32",
          "name": "",
          "type": "bytes32"
        }
      ],
      "stateMutability": "view",
      "type": "function"
    },
    {
      "inputs": [
        {
          "internalType": "bytes32",
          "name": "role",
          "type": "bytes32"
        },
        {
          "internalType": "uint256",
          "name": "index",
          "type": "uint256"
        }
      ],
      "name": "getRoleMember",
      "outputs": [
        {
          "internalType": "address",
          "name": "",
          "type": "address"
        }
      ],
      "stateMutability": "view",
      "type": "function"
    },
    {
      "inputs": [
        {
          "internalType": "bytes32",
          "name": "role",
          "type": "bytes32"
        }
      ],
      "name": "getRoleMemberCount",
      "outputs": [
        {
          "internalType": "uint256",
          "name": "",
          "type": "uint256"
        }
      ],
      "stateMutability": "view",
      "type": "function"
    },
    {
      "inputs": [
        {
          "internalType": "bytes32",
          "name": "role",
          "type": "bytes32"
        },
        {
          "internalType": "address",
          "name": "account",
          "type": "address"
        }
      ],
      "name": "grantRole",
      "outputs": [],
      "stateMutability": "nonpayable",
      "type": "function"
    },
    {
      "inputs": [
        {
          "internalType": "bytes32",
          "name": "role",
          "type": "bytes32"
        },
        {
          "internalType": "address",
          "name": "account",
          "type": "address"
        }
      ],
      "name": "hasRole",
      "outputs": [
        {
          "internalType": "bool",
          "name": "",
          "type": "bool"
        }
      ],
      "stateMutability": "view",
      "type": "function"
    },
    {
      "inputs": [
        {
          "internalType": "address",
          "name": "account",
          "type": "address"
        },
        {
          "internalType": "address",
          "name": "operator",
          "type": "address"
        }
      ],
      "name": "isApprovedForAll",
      "outputs": [
        {
          "internalType": "bool",
          "name": "",
          "type": "bool"
        }
      ],
      "stateMutability": "view",
      "type": "function"
    },
    {
      "inputs": [
        {
          "internalType": "address",
          "name": "to",
          "type": "address"
        },
        {
          "internalType": "uint256",
          "name": "id",
          "type": "uint256"
        },
        {
          "internalType": "uint256",
          "name": "amount",
          "type": "uint256"
        },
        {
          "internalType": "bytes",
          "name": "data",
          "type": "bytes"
        }
      ],
      "name": "mint",
      "outputs": [],
      "stateMutability": "nonpayable",
      "type": "function"
    },
    {
      "inputs": [
        {
          "internalType": "address",
          "name": "to",
          "type": "address"
        },
        {
          "internalType": "uint256[]",
          "name": "ids",
          "type": "uint256[]"
        },
        {
          "internalType": "uint256[]",
          "name": "amounts",
          "type": "uint256[]"
        },
        {
          "internalType": "bytes",
          "name": "data",
          "type": "bytes"
        }
      ],
      "name": "mintBatch",
      "outputs": [],
      "stateMutability": "nonpayable",
      "type": "function"
    },
    {
      "inputs": [
        {
          "internalType": "address",
          "name": "account",
          "type": "address"
        },
        {
          "internalType": "string",
          "name": "tokenMetadataHash",
          "type": "string"
        }
      ],
      "name": "mintNFT",
      "outputs": [],
      "stateMutability": "nonpayable",
      "type": "function"
    },
    {
      "inputs": [],
      "name": "pause",
      "outputs": [],
      "stateMutability": "nonpayable",
      "type": "function"
    },
    {
      "inputs": [],
      "name": "paused",
      "outputs": [
        {
          "internalType": "bool",
          "name": "",
          "type": "bool"
        }
      ],
      "stateMutability": "view",
      "type": "function"
    },
    {
      "inputs": [
        {
          "internalType": "bytes32",
          "name": "role",
          "type": "bytes32"
        },
        {
          "internalType": "address",
          "name": "account",
          "type": "address"
        }
      ],
      "name": "renounceRole",
      "outputs": [],
      "stateMutability": "nonpayable",
      "type": "function"
    },
    {
      "inputs": [
        {
          "internalType": "bytes32",
          "name": "role",
          "type": "bytes32"
        },
        {
          "internalType": "address",
          "name": "account",
          "type": "address"
        }
      ],
      "name": "revokeRole",
      "outputs": [],
      "stateMutability": "nonpayable",
      "type": "function"
    },
    {
      "inputs": [
        {
          "internalType": "address",
          "name": "from",
          "type": "address"
        },
        {
          "internalType": "address",
          "name": "to",
          "type": "address"
        },
        {
          "internalType": "uint256[]",
          "name": "ids",
          "type": "uint256[]"
        },
        {
          "internalType": "uint256[]",
          "name": "amounts",
          "type": "uint256[]"
        },
        {
          "internalType": "bytes",
          "name": "data",
          "type": "bytes"
        }
      ],
      "name": "safeBatchTransferFrom",
      "outputs": [],
      "stateMutability": "nonpayable",
      "type": "function"
    },
    {
      "inputs": [
        {
          "internalType": "address",
          "name": "from",
          "type": "address"
        },
        {
          "internalType": "address",
          "name": "to",
          "type": "address"
        },
        {
          "internalType": "uint256",
          "name": "id",
          "type": "uint256"
        },
        {
          "internalType": "uint256",
          "name": "amount",
          "type": "uint256"
        },
        {
          "internalType": "bytes",
          "name": "data",
          "type": "bytes"
        }
      ],
      "name": "safeTransferFrom",
      "outputs": [],
      "stateMutability": "nonpayable",
      "type": "function"
    },
    {
      "inputs": [
        {
          "internalType": "address",
          "name": "operator",
          "type": "address"
        },
        {
          "internalType": "bool",
          "name": "approved",
          "type": "bool"
        }
      ],
      "name": "setApprovalForAll",
      "outputs": [],
      "stateMutability": "nonpayable",
      "type": "function"
    },
    {
      "inputs": [
        {
          "internalType": "bytes4",
          "name": "interfaceId",
          "type": "bytes4"
        }
      ],
      "name": "supportsInterface",
      "outputs": [
        {
          "internalType": "bool",
          "name": "",
          "type": "bool"
        }
      ],
      "stateMutability": "view",
      "type": "function"
    },
    {
      "inputs": [],
      "name": "tokenIdCount",
      "outputs": [
        {
          "internalType": "uint256",
          "name": "",
          "type": "uint256"
        }
      ],
      "stateMutability": "view",
      "type": "function"
    },
    {
      "inputs": [
        {
          "internalType": "uint256",
          "name": "",
          "type": "uint256"
        }
      ],
      "name": "tokens",
      "outputs": [
        {
          "internalType": "string",
          "name": "",
          "type": "string"
        }
      ],
      "stateMutability": "view",
      "type": "function"
    },
    {
      "inputs": [],
      "name": "unpause",
      "outputs": [],
      "stateMutability": "nonpayable",
      "type": "function"
    },
    {
      "inputs": [
        {
          "internalType": "uint256",
          "name": "id",
          "type": "uint256"
        }
      ],
      "name": "uri",
      "outputs": [
        {
          "internalType": "string",
          "name": "",
          "type": "string"
        }
      ],
      "stateMutability": "view",
      "type": "function"
    }
  ],
  "transactionHash": "0x3ab476674f4407b04efb5fbb0d9d1066d032edf45d36f05d7a06eee87473674b",
  "args": [],
  "solcInputHash": "afdd7a6bd11a86031f064e1ec2a17397",
  "bytecode": "0x60806040523480156200001157600080fd5b50604080516020810190915260008152806200002d81620000b8565b506005805460ff191690556200004e600062000048620000d1565b620000d5565b6200007d7f9f2df0fed2c77648de5860a4cc508cd0818c85b8b8a1ab4ceeef8d981c8956a662000048620000d1565b620000ac7f65d7a28e3265b37a6474929f336521b332c1681b933f6cb9f3376673440d862a62000048620000d1565b50600060075562000341565b8051620000cd9060049060208401906200025e565b5050565b3390565b620000ec82826200011860201b62000c321760201c565b60008281526001602090815260409091206200011391839062000c4062000124821b17901c565b505050565b620000cd828262000144565b60006200013b836001600160a01b038416620001ce565b90505b92915050565b6200015082826200021d565b620000cd576000828152602081815260408083206001600160a01b03851684529091529020805460ff191660011790556200018a620000d1565b6001600160a01b0316816001600160a01b0316837f2f8788117e7eff1d82e926ec794901d17c78024a50270940304540a733656f0d60405160405180910390a45050565b6000620001dc838362000246565b62000214575081546001818101845560008481526020808220909301849055845484825282860190935260409020919091556200013e565b5060006200013e565b6000918252602082815260408084206001600160a01b0393909316845291905290205460ff1690565b60009081526001919091016020526040902054151590565b8280546200026c9062000304565b90600052602060002090601f016020900481019282620002905760008555620002db565b82601f10620002ab57805160ff1916838001178555620002db565b82800160010185558215620002db579182015b82811115620002db578251825591602001919060010190620002be565b50620002e9929150620002ed565b5090565b5b80821115620002e95760008155600101620002ee565b6002810460018216806200031957607f821691505b602082108114156200033b57634e487b7160e01b600052602260045260246000fd5b50919050565b61302580620003516000396000f3fe608060405234801561001057600080fd5b50600436106101c35760003560e01c80638456cb59116100f9578063d547741f11610097578063eacabe1411610071578063eacabe141461039a578063f127394c146103ad578063f242432a146103b5578063f5298aca146103c8576101c3565b8063d547741f1461036c578063e63ab1e91461037f578063e985e9c514610387576101c3565b8063a217fddf116100d3578063a217fddf14610336578063a22cb4651461033e578063ca15c87314610351578063d539139314610364576101c3565b80638456cb59146102fb5780639010d07c1461030357806391d1485414610323576101c3565b806336568abe116101665780634f64b2be116101405780634f64b2be146102ba5780635c975abb146102cd5780636b20c454146102d5578063731133e9146102e8576101c3565b806336568abe1461027f5780633f4ba83a146102925780634e1273f41461029a576101c3565b80631f7fdffa116101a25780631f7fdffa14610231578063248a9ca3146102465780632eb2c2d6146102595780632f2ff15d1461026c576101c3565b8062fdd58e146101c857806301ffc9a7146101f15780630e89341c14610211575b600080fd5b6101db6101d6366004612311565b6103db565b6040516101e891906126ec565b60405180910390f35b6102046101ff3660046124d6565b610437565b6040516101e891906126e1565b61022461021f36600461247b565b61044a565b6040516101e891906126f5565b61024461023f3660046121c6565b6104ec565b005b6101db61025436600461247b565b610583565b61024461026736600461204f565b610598565b61024461027a366004612493565b6105f6565b61024461028d366004612493565b61061d565b61024461063f565b6102ad6102a83660046123be565b610691565b6040516101e891906126a0565b6102246102c836600461247b565b6107b0565b61020461084a565b6102446102e3366004612156565b610854565b6102446102f636600461236c565b6108a9565b6102446108ed565b6103166103113660046124b5565b61093d565b6040516101e891906125e9565b610204610331366004612493565b61095c565b6101db610985565b61024461034c36600461225a565b61098a565b6101db61035f36600461247b565b610a58565b6101db610a6f565b61024461037a366004612493565b610a81565b6101db610a8b565b61020461039536600461201d565b610aaf565b6102446103a8366004612294565b610add565b6101db610b80565b6102446103c33660046120f4565b610b86565b6102446103d636600461233a565b610bdd565b60006001600160a01b03831661040c5760405162461bcd60e51b815260040161040390612807565b60405180910390fd5b5060008181526002602090815260408083206001600160a01b03861684529091529020545b92915050565b600061044282610c55565b90505b919050565b600081815260066020526040902080546060919061046790612e8a565b80601f016020809104026020016040519081016040528092919081815260200182805461049390612e8a565b80156104e05780601f106104b5576101008083540402835291602001916104e0565b820191906000526020600020905b8154815290600101906020018083116104c357829003601f168201915b50505050509050919050565b60005b83518110156105705760006006600086848151811061051e57634e487b7160e01b600052603260045260246000fd5b60200260200101518152602001908152602001600020805461053f90612e8a565b90501161055e5760405162461bcd60e51b815260040161040390612b6a565b8061056881612ec5565b9150506104ef565b5061057d84848484610c95565b50505050565b60009081526020819052604090206001015490565b6105a0610cd7565b6001600160a01b0316856001600160a01b031614806105c657506105c685610395610cd7565b6105e25760405162461bcd60e51b81526004016104039061299a565b6105ef8585858585610cdb565b5050505050565b6106008282610eaf565b60008281526001602052604090206106189082610c40565b505050565b6106278282610ed3565b60008281526001602052604090206106189082610f15565b61066b7f65d7a28e3265b37a6474929f336521b332c1681b933f6cb9f3376673440d862a610331610cd7565b6106875760405162461bcd60e51b815260040161040390612b0d565b61068f610f2a565b565b606081518351146106b45760405162461bcd60e51b815260040161040390612c47565b600083516001600160401b038111156106dd57634e487b7160e01b600052604160045260246000fd5b604051908082528060200260200182016040528015610706578160200160208202803683370190505b50905060005b84518110156107a85761076d85828151811061073857634e487b7160e01b600052603260045260246000fd5b602002602001015185838151811061076057634e487b7160e01b600052603260045260246000fd5b60200260200101516103db565b82828151811061078d57634e487b7160e01b600052603260045260246000fd5b60209081029190910101526107a181612ec5565b905061070c565b509392505050565b600660205260009081526040902080546107c990612e8a565b80601f01602080910402602001604051908101604052809291908181526020018280546107f590612e8a565b80156108425780601f1061081757610100808354040283529160200191610842565b820191906000526020600020905b81548152906001019060200180831161082557829003601f168201915b505050505081565b60055460ff165b90565b61085c610cd7565b6001600160a01b0316836001600160a01b03161480610882575061088283610395610cd7565b61089e5760405162461bcd60e51b8152600401610403906128e2565b610618838383610f98565b600083815260066020526040812080546108c290612e8a565b9050116108e15760405162461bcd60e51b815260040161040390612b6a565b61057d8484848461114c565b6109197f65d7a28e3265b37a6474929f336521b332c1681b933f6cb9f3376673440d862a610331610cd7565b6109355760405162461bcd60e51b815260040161040390612ba1565b61068f61118e565b600082815260016020526040812061095590836111e9565b9392505050565b6000918252602082815260408084206001600160a01b0393909316845291905290205460ff1690565b600081565b816001600160a01b031661099c610cd7565b6001600160a01b031614156109c35760405162461bcd60e51b815260040161040390612bfe565b80600360006109d0610cd7565b6001600160a01b03908116825260208083019390935260409182016000908120918716808252919093529120805460ff191692151592909217909155610a14610cd7565b6001600160a01b03167f17307eab39ab6107e8899845ad3d59bd9653f200f220920489ca2b5937696c3183604051610a4c91906126e1565b60405180910390a35050565b6000818152600160205260408120610442906111f5565b600080516020612fd083398151915281565b6106278282611200565b7f65d7a28e3265b37a6474929f336521b332c1681b933f6cb9f3376673440d862a81565b6001600160a01b03918216600090815260036020908152604080832093909416825291909152205460ff1690565b610af7600080516020612fd0833981519152610331610cd7565b610b135760405162461bcd60e51b815260040161040390612ad6565b80610b305760405162461bcd60e51b815260040161040390612cd8565b60078054906000610b4083612ec5565b90915550506007546000908152600660205260409020610b61908383611e97565b506106188360075460016040518060200160405280600081525061121f565b60075481565b610b8e610cd7565b6001600160a01b0316856001600160a01b03161480610bb45750610bb485610395610cd7565b610bd05760405162461bcd60e51b8152600401610403906128e2565b6105ef8585858585611310565b610be5610cd7565b6001600160a01b0316836001600160a01b03161480610c0b5750610c0b83610395610cd7565b610c275760405162461bcd60e51b8152600401610403906128e2565b610618838383611448565b610c3c828261155b565b5050565b6000610955836001600160a01b0384166115e0565b60006001600160e01b03198216636cdb3d1360e11b1480610c8657506001600160e01b031982166303a24d0760e21b145b8061044257506104428261162a565b610caf600080516020612fd0833981519152610331610cd7565b610ccb5760405162461bcd60e51b815260040161040390612a2f565b61057d8484848461164f565b3390565b8151835114610cfc5760405162461bcd60e51b815260040161040390612c90565b6001600160a01b038416610d225760405162461bcd60e51b815260040161040390612955565b6000610d2c610cd7565b9050610d3c8187878787876117d1565b60005b8451811015610e41576000858281518110610d6a57634e487b7160e01b600052603260045260246000fd5b602002602001015190506000858381518110610d9657634e487b7160e01b600052603260045260246000fd5b60209081029190910181015160008481526002835260408082206001600160a01b038e168352909352919091205490915081811015610de75760405162461bcd60e51b815260040161040390612a8c565b60008381526002602090815260408083206001600160a01b038e8116855292528083208585039055908b16825281208054849290610e26908490612df9565b9250508190555050505080610e3a90612ec5565b9050610d3f565b50846001600160a01b0316866001600160a01b0316826001600160a01b03167f4a39dc06d4c0dbc64b70af90fd698a233a518aa5d07e595d983b8c0526c8f7fb8787604051610e919291906126b3565b60405180910390a4610ea78187878787876117df565b505050505050565b610eb882610583565b610ec981610ec4610cd7565b6118ed565b610618838361155b565b610edb610cd7565b6001600160a01b0316816001600160a01b031614610f0b5760405162461bcd60e51b815260040161040390612d50565b610c3c8282611951565b6000610955836001600160a01b0384166119d4565b610f3261084a565b610f4e5760405162461bcd60e51b8152600401610403906127d9565b6005805460ff191690557f5db9ee0a495bf2e6ff9c91a7834c1ba4fdd244a5e8aa4e537bd38aeae4b073aa610f81610cd7565b604051610f8e91906125e9565b60405180910390a1565b6001600160a01b038316610fbe5760405162461bcd60e51b8152600401610403906129ec565b8051825114610fdf5760405162461bcd60e51b815260040161040390612c90565b6000610fe9610cd7565b9050611009818560008686604051806020016040528060008152506117d1565b60005b83518110156110ed57600084828151811061103757634e487b7160e01b600052603260045260246000fd5b60200260200101519050600084838151811061106357634e487b7160e01b600052603260045260246000fd5b60209081029190910181015160008481526002835260408082206001600160a01b038c1683529093529190912054909150818110156110b45760405162461bcd60e51b815260040161040390612852565b60009283526002602090815260408085206001600160a01b038b16865290915290922091039055806110e581612ec5565b91505061100c565b5060006001600160a01b0316846001600160a01b0316826001600160a01b03167f4a39dc06d4c0dbc64b70af90fd698a233a518aa5d07e595d983b8c0526c8f7fb868660405161113e9291906126b3565b60405180910390a450505050565b611166600080516020612fd0833981519152610331610cd7565b6111825760405162461bcd60e51b815260040161040390612a2f565b61057d8484848461121f565b61119661084a565b156111b35760405162461bcd60e51b81526004016104039061292b565b6005805460ff191660011790557f62e78cea01bee320cd4e420270b5ea74000d11b0c9f74754ebdbfc544b05a258610f81610cd7565b60006109558383611af1565b600061044282611b29565b61120982610583565b61121581610ec4610cd7565b6106188383611951565b6001600160a01b0384166112455760405162461bcd60e51b815260040161040390612d0f565b600061124f610cd7565b90506112708160008761126188611b2d565b61126a88611b2d565b876117d1565b60008481526002602090815260408083206001600160a01b0389168452909152812080548592906112a2908490612df9565b92505081905550846001600160a01b031660006001600160a01b0316826001600160a01b03167fc3d58168c5ae7397731d063d5bbf3d657854427343f4c083240f7aacaa2d0f6287876040516112f9929190612d9f565b60405180910390a46105ef81600087878787611b86565b6001600160a01b0384166113365760405162461bcd60e51b815260040161040390612955565b6000611340610cd7565b905061135181878761126188611b2d565b60008481526002602090815260408083206001600160a01b038a168452909152902054838110156113945760405162461bcd60e51b815260040161040390612a8c565b60008581526002602090815260408083206001600160a01b038b81168552925280832087850390559088168252812080548692906113d3908490612df9565b92505081905550856001600160a01b0316876001600160a01b0316836001600160a01b03167fc3d58168c5ae7397731d063d5bbf3d657854427343f4c083240f7aacaa2d0f628888604051611429929190612d9f565b60405180910390a461143f828888888888611b86565b50505050505050565b6001600160a01b03831661146e5760405162461bcd60e51b8152600401610403906129ec565b6000611478610cd7565b90506114a88185600061148a87611b2d565b61149387611b2d565b604051806020016040528060008152506117d1565b60008381526002602090815260408083206001600160a01b0388168452909152902054828110156114eb5760405162461bcd60e51b815260040161040390612852565b60008481526002602090815260408083206001600160a01b03808a16808652919093528184208786039055905190918516907fc3d58168c5ae7397731d063d5bbf3d657854427343f4c083240f7aacaa2d0f629061154c9089908990612d9f565b60405180910390a45050505050565b611565828261095c565b610c3c576000828152602081815260408083206001600160a01b03851684529091529020805460ff1916600117905561159c610cd7565b6001600160a01b0316816001600160a01b0316837f2f8788117e7eff1d82e926ec794901d17c78024a50270940304540a733656f0d60405160405180910390a45050565b60006115ec8383611c57565b61162257508154600181810184556000848152602080822090930184905584548482528286019093526040902091909155610431565b506000610431565b60006001600160e01b03198216635a05180f60e01b1480610442575061044282611c6f565b6001600160a01b0384166116755760405162461bcd60e51b815260040161040390612d0f565b81518351146116965760405162461bcd60e51b815260040161040390612c90565b60006116a0610cd7565b90506116b1816000878787876117d1565b60005b8451811015611769578381815181106116dd57634e487b7160e01b600052603260045260246000fd5b60200260200101516002600087848151811061170957634e487b7160e01b600052603260045260246000fd5b602002602001015181526020019081526020016000206000886001600160a01b03166001600160a01b0316815260200190815260200160002060008282546117519190612df9565b9091555081905061176181612ec5565b9150506116b4565b50846001600160a01b031660006001600160a01b0316826001600160a01b03167f4a39dc06d4c0dbc64b70af90fd698a233a518aa5d07e595d983b8c0526c8f7fb87876040516117ba9291906126b3565b60405180910390a46105ef816000878787876117df565b610ea7868686868686611c94565b6117f1846001600160a01b0316611cc7565b15610ea75760405163bc197c8160e01b81526001600160a01b0385169063bc197c819061182a90899089908890889088906004016125fd565b602060405180830381600087803b15801561184457600080fd5b505af1925050508015611874575060408051601f3d908101601f19168201909252611871918101906124f2565b60015b6118bd57611880612f12565b8061188b57506118a5565b8060405162461bcd60e51b815260040161040391906126f5565b60405162461bcd60e51b815260040161040390612708565b6001600160e01b0319811663bc197c8160e01b1461143f5760405162461bcd60e51b815260040161040390612791565b6118f7828261095c565b610c3c5761190f816001600160a01b03166014611ccd565b61191a836020611ccd565b60405160200161192b929190612574565b60408051601f198184030181529082905262461bcd60e51b8252610403916004016126f5565b61195b828261095c565b15610c3c576000828152602081815260408083206001600160a01b03851684529091529020805460ff19169055611990610cd7565b6001600160a01b0316816001600160a01b0316837ff6391f5c32d9c69d2a47ea670b442974b53935d1edc7fd64eb21e047a839171b60405160405180910390a45050565b60008181526001830160205260408120548015611ae75760006119f8600183612e30565b8554909150600090611a0c90600190612e30565b9050818114611a8d576000866000018281548110611a3a57634e487b7160e01b600052603260045260246000fd5b9060005260206000200154905080876000018481548110611a6b57634e487b7160e01b600052603260045260246000fd5b6000918252602080832090910192909255918252600188019052604090208390555b8554869080611aac57634e487b7160e01b600052603160045260246000fd5b600190038181906000526020600020016000905590558560010160008681526020019081526020016000206000905560019350505050610431565b6000915050610431565b6000826000018281548110611b1657634e487b7160e01b600052603260045260246000fd5b9060005260206000200154905092915050565b5490565b60408051600180825281830190925260609160009190602080830190803683370190505090508281600081518110611b7557634e487b7160e01b600052603260045260246000fd5b602090810291909101015292915050565b611b98846001600160a01b0316611cc7565b15610ea75760405163f23a6e6160e01b81526001600160a01b0385169063f23a6e6190611bd1908990899088908890889060040161265b565b602060405180830381600087803b158015611beb57600080fd5b505af1925050508015611c1b575060408051601f3d908101601f19168201909252611c18918101906124f2565b60015b611c2757611880612f12565b6001600160e01b0319811663f23a6e6160e01b1461143f5760405162461bcd60e51b815260040161040390612791565b60009081526001919091016020526040902054151590565b60006001600160e01b03198216637965db0b60e01b1480610442575061044282611e7e565b611ca2868686868686610ea7565b611caa61084a565b15610ea75760405162461bcd60e51b815260040161040390612896565b3b151590565b60606000611cdc836002612e11565b611ce7906002612df9565b6001600160401b03811115611d0c57634e487b7160e01b600052604160045260246000fd5b6040519080825280601f01601f191660200182016040528015611d36576020820181803683370190505b509050600360fc1b81600081518110611d5f57634e487b7160e01b600052603260045260246000fd5b60200101906001600160f81b031916908160001a905350600f60fb1b81600181518110611d9c57634e487b7160e01b600052603260045260246000fd5b60200101906001600160f81b031916908160001a9053506000611dc0846002612e11565b611dcb906001612df9565b90505b6001811115611e5f576f181899199a1a9b1b9c1cb0b131b232b360811b85600f1660108110611e0d57634e487b7160e01b600052603260045260246000fd5b1a60f81b828281518110611e3157634e487b7160e01b600052603260045260246000fd5b60200101906001600160f81b031916908160001a90535060049490941c93611e5881612e73565b9050611dce565b5083156109555760405162461bcd60e51b81526004016104039061275c565b6001600160e01b031981166301ffc9a760e01b14919050565b828054611ea390612e8a565b90600052602060002090601f016020900481019282611ec55760008555611f0b565b82601f10611ede5782800160ff19823516178555611f0b565b82800160010185558215611f0b579182015b82811115611f0b578235825591602001919060010190611ef0565b50611f17929150611f1b565b5090565b5b80821115611f175760008155600101611f1c565b80356001600160a01b038116811461044557600080fd5b600082601f830112611f57578081fd5b81356020611f6c611f6783612dd6565b612dad565b8281528181019085830183850287018401881015611f88578586fd5b855b85811015611fa657813584529284019290840190600101611f8a565b5090979650505050505050565b600082601f830112611fc3578081fd5b81356001600160401b03811115611fdc57611fdc612ef6565b611fef601f8201601f1916602001612dad565b818152846020838601011115612003578283fd5b816020850160208301379081016020019190915292915050565b6000806040838503121561202f578182fd5b61203883611f30565b915061204660208401611f30565b90509250929050565b600080600080600060a08688031215612066578081fd5b61206f86611f30565b945061207d60208701611f30565b935060408601356001600160401b0380821115612098578283fd5b6120a489838a01611f47565b945060608801359150808211156120b9578283fd5b6120c589838a01611f47565b935060808801359150808211156120da578283fd5b506120e788828901611fb3565b9150509295509295909350565b600080600080600060a0868803121561210b578081fd5b61211486611f30565b945061212260208701611f30565b9350604086013592506060860135915060808601356001600160401b0381111561214a578182fd5b6120e788828901611fb3565b60008060006060848603121561216a578283fd5b61217384611f30565b925060208401356001600160401b038082111561218e578384fd5b61219a87838801611f47565b935060408601359150808211156121af578283fd5b506121bc86828701611f47565b9150509250925092565b600080600080608085870312156121db578384fd5b6121e485611f30565b935060208501356001600160401b03808211156121ff578485fd5b61220b88838901611f47565b94506040870135915080821115612220578384fd5b61222c88838901611f47565b93506060870135915080821115612241578283fd5b5061224e87828801611fb3565b91505092959194509250565b6000806040838503121561226c578182fd5b61227583611f30565b915060208301358015158114612289578182fd5b809150509250929050565b6000806000604084860312156122a8578283fd5b6122b184611f30565b925060208401356001600160401b03808211156122cc578384fd5b818601915086601f8301126122df578384fd5b8135818111156122ed578485fd5b8760208285010111156122fe578485fd5b6020830194508093505050509250925092565b60008060408385031215612323578182fd5b61232c83611f30565b946020939093013593505050565b60008060006060848603121561234e578081fd5b61235784611f30565b95602085013595506040909401359392505050565b60008060008060808587031215612381578182fd5b61238a85611f30565b9350602085013592506040850135915060608501356001600160401b038111156123b2578182fd5b61224e87828801611fb3565b600080604083850312156123d0578182fd5b82356001600160401b03808211156123e6578384fd5b818501915085601f8301126123f9578384fd5b81356020612409611f6783612dd6565b82815281810190858301838502870184018b1015612425578889fd5b8896505b8487101561244e5761243a81611f30565b835260019690960195918301918301612429565b5096505086013592505080821115612464578283fd5b5061247185828601611f47565b9150509250929050565b60006020828403121561248c578081fd5b5035919050565b600080604083850312156124a5578182fd5b8235915061204660208401611f30565b600080604083850312156124c7578182fd5b50508035926020909101359150565b6000602082840312156124e7578081fd5b813561095581612fb6565b600060208284031215612503578081fd5b815161095581612fb6565b6000815180845260208085019450808401835b8381101561253d57815187529582019590820190600101612521565b509495945050505050565b60008151808452612560816020860160208601612e47565b601f01601f19169290920160200192915050565b60007f416363657373436f6e74726f6c3a206163636f756e7420000000000000000000825283516125ac816017850160208801612e47565b7001034b99036b4b9b9b4b733903937b6329607d1b60179184019182015283516125dd816028840160208801612e47565b01602801949350505050565b6001600160a01b0391909116815260200190565b6001600160a01b0386811682528516602082015260a0604082018190526000906126299083018661250e565b828103606084015261263b818661250e565b9050828103608084015261264f8185612548565b98975050505050505050565b6001600160a01b03868116825285166020820152604081018490526060810183905260a06080820181905260009061269590830184612548565b979650505050505050565b600060208252610955602083018461250e565b6000604082526126c6604083018561250e565b82810360208401526126d8818561250e565b95945050505050565b901515815260200190565b90815260200190565b6000602082526109556020830184612548565b60208082526034908201527f455243313135353a207472616e7366657220746f206e6f6e20455243313135356040820152732932b1b2b4bb32b91034b6b83632b6b2b73a32b960611b606082015260800190565b6020808252818101527f537472696e67733a20686578206c656e67746820696e73756666696369656e74604082015260600190565b60208082526028908201527f455243313135353a204552433131353552656365697665722072656a656374656040820152676420746f6b656e7360c01b606082015260800190565b60208082526014908201527314185d5cd8589b194e881b9bdd081c185d5cd95960621b604082015260600190565b6020808252602b908201527f455243313135353a2062616c616e636520717565727920666f7220746865207a60408201526a65726f206164647265737360a81b606082015260800190565b60208082526024908201527f455243313135353a206275726e20616d6f756e7420657863656564732062616c604082015263616e636560e01b606082015260800190565b6020808252602c908201527f455243313135355061757361626c653a20746f6b656e207472616e736665722060408201526b1dda1a5b19481c185d5cd95960a21b606082015260800190565b60208082526029908201527f455243313135353a2063616c6c6572206973206e6f74206f776e6572206e6f7260408201526808185c1c1c9bdd995960ba1b606082015260800190565b60208082526010908201526f14185d5cd8589b194e881c185d5cd95960821b604082015260600190565b60208082526025908201527f455243313135353a207472616e7366657220746f20746865207a65726f206164604082015264647265737360d81b606082015260800190565b60208082526032908201527f455243313135353a207472616e736665722063616c6c6572206973206e6f74206040820152711bdddb995c881b9bdc88185c1c1c9bdd995960721b606082015260800190565b60208082526023908201527f455243313135353a206275726e2066726f6d20746865207a65726f206164647260408201526265737360e81b606082015260800190565b60208082526038908201527f455243313135355072657365744d696e7465725061757365723a206d7573742060408201527f68617665206d696e74657220726f6c6520746f206d696e740000000000000000606082015260800190565b6020808252602a908201527f455243313135353a20696e73756666696369656e742062616c616e636520666f60408201526939103a3930b739b332b960b11b606082015260800190565b6020808252601d908201527f4d7573742068617665206d696e74657220726f6c6520746f206d696e74000000604082015260600190565b6020808252603b908201527f455243313135355072657365744d696e7465725061757365723a206d7573742060408201527f686176652070617573657220726f6c6520746f20756e70617573650000000000606082015260800190565b60208082526019908201527f546f6b656e207479706520646f6573206e6f7420657869737400000000000000604082015260600190565b60208082526039908201527f455243313135355072657365744d696e7465725061757365723a206d7573742060408201527f686176652070617573657220726f6c6520746f20706175736500000000000000606082015260800190565b60208082526029908201527f455243313135353a2073657474696e6720617070726f76616c20737461747573604082015268103337b91039b2b63360b91b606082015260800190565b60208082526029908201527f455243313135353a206163636f756e747320616e6420696473206c656e677468604082015268040dad2e6dac2e8c6d60bb1b606082015260800190565b60208082526028908201527f455243313135353a2069647320616e6420616d6f756e7473206c656e677468206040820152670dad2e6dac2e8c6d60c31b606082015260800190565b60208082526019908201527f4d65746164617461206861736820697320726571756972656400000000000000604082015260600190565b60208082526021908201527f455243313135353a206d696e7420746f20746865207a65726f206164647265736040820152607360f81b606082015260800190565b6020808252602f908201527f416363657373436f6e74726f6c3a2063616e206f6e6c792072656e6f756e636560408201526e103937b632b9903337b91039b2b63360891b606082015260800190565b918252602082015260400190565b6040518181016001600160401b0381118282101715612dce57612dce612ef6565b604052919050565b60006001600160401b03821115612def57612def612ef6565b5060209081020190565b60008219821115612e0c57612e0c612ee0565b500190565b6000816000190483118215151615612e2b57612e2b612ee0565b500290565b600082821015612e4257612e42612ee0565b500390565b60005b83811015612e62578181015183820152602001612e4a565b8381111561057d5750506000910152565b600081612e8257612e82612ee0565b506000190190565b600281046001821680612e9e57607f821691505b60208210811415612ebf57634e487b7160e01b600052602260045260246000fd5b50919050565b6000600019821415612ed957612ed9612ee0565b5060010190565b634e487b7160e01b600052601160045260246000fd5b634e487b7160e01b600052604160045260246000fd5b60e01c90565b600060443d1015612f2257610851565b600481823e6308c379a0612f368251612f0c565b14612f4057610851565b6040513d600319016004823e80513d6001600160401b038160248401118184111715612f6f5750505050610851565b82840192508251915080821115612f895750505050610851565b503d83016020828401011115612fa157505050610851565b601f01601f1916810160200160405291505090565b6001600160e01b031981168114612fcc57600080fd5b5056fe9f2df0fed2c77648de5860a4cc508cd0818c85b8b8a1ab4ceeef8d981c8956a6a2646970667358221220173f254dc9316f820f3f22458caa638a48db041177035bb3eddc09823698517464736f6c63430008000033",
  "devdoc": {
    "kind": "dev",
    "methods": {
      "balanceOf(address,uint256)": {
        "details": "See {IERC1155-balanceOf}. Requirements: - `account` cannot be the zero address."
      },
      "balanceOfBatch(address[],uint256[])": {
        "details": "See {IERC1155-balanceOfBatch}. Requirements: - `accounts` and `ids` must have the same length."
      },
      "getRoleAdmin(bytes32)": {
        "details": "Returns the admin role that controls `role`. See {grantRole} and {revokeRole}. To change a role's admin, use {_setRoleAdmin}."
      },
      "getRoleMember(bytes32,uint256)": {
        "details": "Returns one of the accounts that have `role`. `index` must be a value between 0 and {getRoleMemberCount}, non-inclusive. Role bearers are not sorted in any particular way, and their ordering may change at any point. WARNING: When using {getRoleMember} and {getRoleMemberCount}, make sure you perform all queries on the same block. See the following https://forum.openzeppelin.com/t/iterating-over-elements-on-enumerableset-in-openzeppelin-contracts/2296[forum post] for more information."
      },
      "getRoleMemberCount(bytes32)": {
        "details": "Returns the number of accounts that have `role`. Can be used together with {getRoleMember} to enumerate all bearers of a role."
      },
      "grantRole(bytes32,address)": {
        "details": "Overload {grantRole} to track enumerable memberships"
      },
      "hasRole(bytes32,address)": {
        "details": "Returns `true` if `account` has been granted `role`."
      },
      "isApprovedForAll(address,address)": {
        "details": "See {IERC1155-isApprovedForAll}."
      },
      "mint(address,uint256,uint256,bytes)": {
        "params": {
          "amount": "the amount of tokens with type id to mint",
          "data": "...",
          "id": "token id for the new token",
          "to": "address of the owner for the new token"
        }
      },
      "mintBatch(address,uint256[],uint256[],bytes)": {
        "params": {
          "amounts": "array of amounts to mint tokens from the ids array",
          "data": "...",
          "ids": "array of token ids for the new or existing token/s",
          "to": "address of the owner for the new token/s"
        }
      },
      "mintNFT(address,string)": {
        "params": {
          "account": "address of the owner for the new token",
          "tokenMetadataHash": "a string hash of the metadata for the new token"
        }
      },
      "pause()": {
        "details": "Pauses all token transfers. See {ERC1155Pausable} and {Pausable-_pause}. Requirements: - the caller must have the `PAUSER_ROLE`."
      },
      "paused()": {
        "details": "Returns true if the contract is paused, and false otherwise."
      },
      "renounceRole(bytes32,address)": {
        "details": "Overload {renounceRole} to track enumerable memberships"
      },
      "revokeRole(bytes32,address)": {
        "details": "Overload {revokeRole} to track enumerable memberships"
      },
      "safeBatchTransferFrom(address,address,uint256[],uint256[],bytes)": {
        "details": "See {IERC1155-safeBatchTransferFrom}."
      },
      "safeTransferFrom(address,address,uint256,uint256,bytes)": {
        "details": "See {IERC1155-safeTransferFrom}."
      },
      "setApprovalForAll(address,bool)": {
        "details": "See {IERC1155-setApprovalForAll}."
      },
      "supportsInterface(bytes4)": {
        "details": "See {IERC165-supportsInterface}."
      },
      "unpause()": {
        "details": "Unpauses all token transfers. See {ERC1155Pausable} and {Pausable-_unpause}. Requirements: - the caller must have the `PAUSER_ROLE`."
      },
      "uri(uint256)": {
        "params": {
          "id": "token id of the token whose metadata will be returned"
        },
        "returns": {
          "_0": "string hash of the token's metadata"
        }
      }
    },
    "title": "The main wine trust token contract which extends the ERC1155 minter pauser preset ",
    "version": 1
  },
  "userdoc": {
    "kind": "user",
    "methods": {
      "constructor": {
        "notice": "Initialises the contract and sets token id count to 0"
      },
      "mint(address,uint256,uint256,bytes)": {
        "notice": "Override the existing ERC1155 minter pauser preset mint function to make sure that a metadata hash for the token id exists in the tokens mapping (make sure this token id has been minted using mintToken before adding to it's balance)"
      },
      "mintBatch(address,uint256[],uint256[],bytes)": {
        "notice": "Override the existing ERC1155 minter pauser preset mintBatch function to make sure that a metadata hash for the all the token ids exists in the tokens mapping (make sure these token ids have been minted using mintToken before adding to their balance)"
      },
      "mintNFT(address,string)": {
        "notice": "Mint a wine trust token storing the hash of it's metadata in the tokens mapping"
      },
      "tokenIdCount()": {
        "notice": "Variable to store the token id count"
      },
      "tokens(uint256)": {
        "notice": "Mapping of token ids to token metadata hashes"
      },
      "uri(uint256)": {
        "notice": "Override the existing ERC1155 uri function to return to return a token's metadata hash string from the tokens mapping."
      }
    },
    "version": 1
  },
  "storageLayout": {
    "storage": [
      {
        "astId": 24,
        "contract": "contracts/implementations/WineTrustToken.sol:WineTrustToken",
        "label": "_roles",
        "offset": 0,
        "slot": "0",
        "type": "t_mapping(t_bytes32,t_struct(RoleData)19_storage)"
      },
      {
        "astId": 325,
        "contract": "contracts/implementations/WineTrustToken.sol:WineTrustToken",
        "label": "_roleMembers",
        "offset": 0,
        "slot": "1",
        "type": "t_mapping(t_bytes32,t_struct(AddressSet)3119_storage)"
      },
      {
        "astId": 701,
        "contract": "contracts/implementations/WineTrustToken.sol:WineTrustToken",
        "label": "_balances",
        "offset": 0,
        "slot": "2",
        "type": "t_mapping(t_uint256,t_mapping(t_address,t_uint256))"
      },
      {
        "astId": 707,
        "contract": "contracts/implementations/WineTrustToken.sol:WineTrustToken",
        "label": "_operatorApprovals",
        "offset": 0,
        "slot": "3",
        "type": "t_mapping(t_address,t_mapping(t_address,t_bool))"
      },
      {
        "astId": 709,
        "contract": "contracts/implementations/WineTrustToken.sol:WineTrustToken",
        "label": "_uri",
        "offset": 0,
        "slot": "4",
        "type": "t_string_storage"
      },
      {
        "astId": 601,
        "contract": "contracts/implementations/WineTrustToken.sol:WineTrustToken",
        "label": "_paused",
        "offset": 0,
        "slot": "5",
        "type": "t_bool"
      },
      {
        "astId": 3420,
        "contract": "contracts/implementations/WineTrustToken.sol:WineTrustToken",
        "label": "tokens",
        "offset": 0,
        "slot": "6",
        "type": "t_mapping(t_uint256,t_string_storage)"
      },
      {
        "astId": 3423,
        "contract": "contracts/implementations/WineTrustToken.sol:WineTrustToken",
        "label": "tokenIdCount",
        "offset": 0,
        "slot": "7",
        "type": "t_uint256"
      }
    ],
    "types": {
      "t_address": {
        "encoding": "inplace",
        "label": "address",
        "numberOfBytes": "20"
      },
      "t_array(t_bytes32)dyn_storage": {
        "base": "t_bytes32",
        "encoding": "dynamic_array",
        "label": "bytes32[]",
        "numberOfBytes": "32"
      },
      "t_bool": {
        "encoding": "inplace",
        "label": "bool",
        "numberOfBytes": "1"
      },
      "t_bytes32": {
        "encoding": "inplace",
        "label": "bytes32",
        "numberOfBytes": "32"
      },
      "t_mapping(t_address,t_bool)": {
        "encoding": "mapping",
        "key": "t_address",
        "label": "mapping(address => bool)",
        "numberOfBytes": "32",
        "value": "t_bool"
      },
      "t_mapping(t_address,t_mapping(t_address,t_bool))": {
        "encoding": "mapping",
        "key": "t_address",
        "label": "mapping(address => mapping(address => bool))",
        "numberOfBytes": "32",
        "value": "t_mapping(t_address,t_bool)"
      },
      "t_mapping(t_address,t_uint256)": {
        "encoding": "mapping",
        "key": "t_address",
        "label": "mapping(address => uint256)",
        "numberOfBytes": "32",
        "value": "t_uint256"
      },
      "t_mapping(t_bytes32,t_struct(AddressSet)3119_storage)": {
        "encoding": "mapping",
        "key": "t_bytes32",
        "label": "mapping(bytes32 => struct EnumerableSet.AddressSet)",
        "numberOfBytes": "32",
        "value": "t_struct(AddressSet)3119_storage"
      },
      "t_mapping(t_bytes32,t_struct(RoleData)19_storage)": {
        "encoding": "mapping",
        "key": "t_bytes32",
        "label": "mapping(bytes32 => struct AccessControl.RoleData)",
        "numberOfBytes": "32",
        "value": "t_struct(RoleData)19_storage"
      },
      "t_mapping(t_bytes32,t_uint256)": {
        "encoding": "mapping",
        "key": "t_bytes32",
        "label": "mapping(bytes32 => uint256)",
        "numberOfBytes": "32",
        "value": "t_uint256"
      },
      "t_mapping(t_uint256,t_mapping(t_address,t_uint256))": {
        "encoding": "mapping",
        "key": "t_uint256",
        "label": "mapping(uint256 => mapping(address => uint256))",
        "numberOfBytes": "32",
        "value": "t_mapping(t_address,t_uint256)"
      },
      "t_mapping(t_uint256,t_string_storage)": {
        "encoding": "mapping",
        "key": "t_uint256",
        "label": "mapping(uint256 => string)",
        "numberOfBytes": "32",
        "value": "t_string_storage"
      },
      "t_string_storage": {
        "encoding": "bytes",
        "label": "string",
        "numberOfBytes": "32"
      },
      "t_struct(AddressSet)3119_storage": {
        "encoding": "inplace",
        "label": "struct EnumerableSet.AddressSet",
        "members": [
          {
            "astId": 3118,
            "contract": "contracts/implementations/WineTrustToken.sol:WineTrustToken",
            "label": "_inner",
            "offset": 0,
            "slot": "0",
            "type": "t_struct(Set)2818_storage"
          }
        ],
        "numberOfBytes": "64"
      },
      "t_struct(RoleData)19_storage": {
        "encoding": "inplace",
        "label": "struct AccessControl.RoleData",
        "members": [
          {
            "astId": 16,
            "contract": "contracts/implementations/WineTrustToken.sol:WineTrustToken",
            "label": "members",
            "offset": 0,
            "slot": "0",
            "type": "t_mapping(t_address,t_bool)"
          },
          {
            "astId": 18,
            "contract": "contracts/implementations/WineTrustToken.sol:WineTrustToken",
            "label": "adminRole",
            "offset": 0,
            "slot": "1",
            "type": "t_bytes32"
          }
        ],
        "numberOfBytes": "64"
      },
      "t_struct(Set)2818_storage": {
        "encoding": "inplace",
        "label": "struct EnumerableSet.Set",
        "members": [
          {
            "astId": 2813,
            "contract": "contracts/implementations/WineTrustToken.sol:WineTrustToken",
            "label": "_values",
            "offset": 0,
            "slot": "0",
            "type": "t_array(t_bytes32)dyn_storage"
          },
          {
            "astId": 2817,
            "contract": "contracts/implementations/WineTrustToken.sol:WineTrustToken",
            "label": "_indexes",
            "offset": 0,
            "slot": "1",
            "type": "t_mapping(t_bytes32,t_uint256)"
          }
        ],
        "numberOfBytes": "64"
      },
      "t_uint256": {
        "encoding": "inplace",
        "label": "uint256",
        "numberOfBytes": "32"
      }
    }
  }
}